:020000040800F2
:10000000D8670020AD850008151E0008171E0008DF
:100010001B1E00081F1E0008231E00080000000011
:10002000000000000000000000000000271E000883
:10003000291E0008000000002B1E00082D1E0008CD
:10004000C7850008C7850008C7850008C785000860
:10005000C7850008C7850008C7850008C785000850
:10006000C7850008C7850008C7850008A11D0008CE
:10007000C7850008C7850008C7850008C785000830
:10008000C7850008C7850008C7850008C785000820
:10009000C7850008C7850008C7850008C785000810
:1000A000C7850008C7850008C7850008C785000800
:1000B000BB7100082D720008C7850008C7850008BD
:1000C000C7850008C7850008C7850008C7850008E0
:1000D000C7850008C7850008C7850008C7850008D0
:1000E000C7850008C7850008C7850008C7850008C0
:1000F000C7850008C7850008C7850008C7850008B0
:10010000C7850008C7850008C7850008C78500089F
:10011000C7850008C7850008C7850008C78500088F
:10012000C7850008C7850008C7850008C78500087F
:1001300000F002F800F06EF80AA090E8000C82448B
:100140008344AAF10107DA4501D100F063F8AFF268
:10015000090EBAE80F0013F0010F18BFFB1A43F0A5
:1001600001031847742101009421010010F8013B9C
:100170000A4413F0030408BF10F8014B1D1108BF17
:1001800010F8015B641E05D010F8016B641E01F8C5
:10019000016BF9D1002D15D010F8014B03F00C03C1
:1001A0000C2BA1EB04040ABF10F8013BA4EB831451
:1001B000A4EB032405F1010314F8016B5B1E01F8A5
:1001C000016BF9D5914238BF10F8013BD1D370478C
:1001D0000023002400250026103A28BF78C1FBD850
:1001E000520728BF30C148BF0B60704766290CF02A
:1001F000428778290AF07485002070471FB50BF0FC
:10020000F1F80400002000210BF05AFEE0601FBD51
:1002100010B510BD0BF0EAF91146FFF7EFFF01F042
:1002200067FC0BF008FA03B4FFF7F2FF03BC07F01A
:100230004BF8000008B50121802009F08FFA10204A
:100240008DF8030003208DF8020040F2FF10ADF896
:1002500000006946FE4808F0C5FF08BD10B5012141
:10026000FB4809F06EF80221F94809F06AF8042108
:10027000F74809F066F80821F54809F062F81021FE
:10028000F34809F05EF82021F14809F05AF84021BE
:10029000EF4809F056F88021ED4809F052F84FF484
:1002A0008071EB4809F04DF810BD2DE9FC474FF087
:1002B000000941F2883A00BF002409E0E54830F81F
:1002C0001400484502DDE34830F81490601C84B205
:1002D000B4F5806FF2DB002409E0DE4830F814004A
:1002E000504502DADB4830F814A0601C84B2B4F543
:1002F000806FF2DBA9EB0A000CF09FF807464FF085
:100300006632D54B0CF000F905460022D34B0BF0BA
:10031000D3FECDE900010BF0E9FDD1490860BDE84D
:10032000FC872DE9F04F8BB0054600246CE0CD48EA
:1003300030F824000FFA80F8CA4850F824004FEA39
:10034000204940460CF02AFD099028460CF03EFD5D
:10035000089009990CF04EFD83464FF08E410CF049
:100360003BFC064648460CF019FD099028460CF067
:100370002DFD089009990CF03DFD83464FF08E410C
:100380000CF02AFC074628460CF06EF8CDE9060171
:10039000394638460CF02EFD3146019030460CF0BF
:1003A00029FD009001990CF0B5FB83460CF086FB0B
:1003B000CDE902010BF05EFDCDE90401DDE9062384
:1003C0000BF07AFECDE908010BF090FD82464FF06C
:1003D0008F4150460CF00EFD05900CF0BFFC83469B
:1003E0000CF042F84FF066329B4BCDE906010CF061
:1003F0008BF80022994BCDE908010BF05DFE9A4A7B
:1004000002EBC40203C2641C05EBD571B4EB610FAF
:100410008DD3954800224FF08043D0E900B1584673
:100420000BF04AFE904A03C20BB0BDE8F08F2DE9F5
:10043000F0418D48D0E9022110460BF057FD8B4961
:10044000086001241DE0894800680CF037FB054670
:10045000854800EBC400D0E900733A4628460CF00A
:1004600017F80CD220B2824908807F4800EBC40004
:10047000D0E9002110460BF039FD7C490860601C72
:1004800084B2B4F5007FDEDBBDE8F08110B5002456
:1004900008E0704830F814000004764941F8240060
:1004A000601C84B2B4F5806FF3DB4FF48062714955
:1004B0006C4806F021FF4FF48060FFF732FF10BD5B
:1004C0002DE9F04F8DB011244FF0440900BF00BF5B
:1004D000694D6A4E644800F5487003C82A463346A1
:1004E000CDE904010CF010F8CDE906010BF0FEFC9B
:1004F0000C905D4800F5C86003C82A463346CDE934
:1005000004010CF001F8CDE906010BF0EFFC824686
:10051000554800F5166003C82A463346CDE9040164
:100520000BF0F2FFCDE906010BF0E0FC83464E48EC
:1005300000F5486003C82A463346CDE904010BF0B4
:10054000E3FFCDE906010BF0D1FC0B90464800F526
:100550007A6003C82A463346CDE904010BF0D4FF84
:10056000CDE906010BF0C2FC0A900C980CF0A6FA3B
:10057000CDE908010A9908460CF03CFC06900B995D
:1005800008460CF037FC5946049058460CF032FCF3
:100590005146029050460CF02DFC019002990CF04F
:1005A000B9FA039004990CF0B5FA059006990CF08D
:1005B000B1FA07900CF082FA074688463846414661
:1005C0000BF058FC0746884638464146DDE90823CB
:1005D0000BF072FD00222A4BCDE906010BF094FFCF
:1005E000284A03C20C980CF069FA02460B46CDE982
:1005F000060125A127480AF05FFB26481021CDE916
:1006000000102146C9F1B4001023C82206F00AFCEC
:1006100050460CF053FA02460B46CDE906011EA1E6
:100620001C480AF049FB1B481021CDE9001004F1D9
:100630000F01C9F1B4001023C82206F0F3FB58469D
:100640000CF03CFA02460B46CDE906012AE0000018
:10065000001C01408810002066660A400000B0407F
:10066000001000208828002088380020F40F002087
:10067000FA0F002088180020F0A7C64B3789F93FF1
:100680000000594008100020556F313A252E346C77
:100690006656000088580020556F323A252E346C7B
:1006A00066560000F7A1FA480AF006FBF848102148
:1006B000CDE9001004F11E01C9F1B4001023C822D5
:1006C00006F0B0FB0B980CF0F9F902460B46CDE9A9
:1006D0000601F0A1EE480AF0EFFAED481021CDE94D
:1006E000001004F12D01C9F1B4001023C82206F056
:1006F00099FB0A980CF0E2F902460B46CDE9060197
:10070000E7A1E3480AF0D8FAE1481021CDE900104A
:1007100004F13C01C9F1B4001023C82206F082FBA9
:100720001F20E2490880E248E2A10CC8D8480AF03C
:10073000C3FAD7481021CDE9001004F14B01C9F1EB
:10074000B4001023C82206F06DFB4FF47840D7495F
:1007500008800DB0BDE8F08F2DE9F04F91B0192061
:100760000F90D74CD74D0026D74F4FF00008DFF839
:100770005C934FF0000A43E1BAF1000F4FD1D44926
:1007800031F81A000BF070FE4FF06632D14BCDE914
:1007900002010BF0B9FE0022CF4BCDE904010BF0B2
:1007A0008BFC22462B46CDE906010BF0ADFE002264
:1007B000CA4BCDE90A01404649460BF0C9FBCDE9D9
:1007C0000801DDE90A230CF08FF8CDE90C010BF0EC
:1007D00007FE1FFA80FB50460BF02FFE32463B46C9
:1007E000CDE904010BF090FECDE908010F980BF064
:1007F00024FECDE90601DDE908230BF0A9FB002268
:10080000B74BCDE90A010BF0A3FBCDE90C010BF0CE
:10081000E7FD80B259460E9002F0A1F9EEE0AC4936
:1008200031F81A000BF020FE4FF06632A94BCDE9EB
:1008300002010BF069FE0022A74BCDE904010BF089
:100840003BFC22462B46CDE906010BF05DFE002263
:10085000A24BCDE90A01404649460BF079FBCDE9B0
:100860000801DDE90A230CF03FF8CDE90C010BF09B
:10087000B7FD1FFA80FB50460BF0DFFD32463B46CA
:10088000CDE904010BF040FECDE908010F980BF013
:10089000D4FDCDE90601DDE908230BF059FB002268
:1008A0008F4BCDE90A010BF053FBCDE90C010BF0A6
:1008B00097FD80B259460E9002F051F9844931F803
:1008C0001A000BF0D1FD4FF06632824BCDE90001EA
:1008D0000BF01AFE0022804BCDE902010BF0ECFB7D
:1008E00022462B46CDE904010BF00EFE00227B4B85
:1008F000CDE90801404649460BF02AFBCDE9060147
:10090000DDE908230BF0F0FFCDE90A010BF068FDEB
:100910001FFA80FB50460BF090FD32463B46CDE976
:1009200002010BF0F1FDCDE906010F980BF085FDFA
:10093000CDE90401DDE906230BF00AFB0022684B38
:10094000CDE908010BF004FBCDE90A010BF048FDED
:1009500080B2AAF101015E4A0E9032F811000BF04C
:1009600083FD4FF066325B4BCDE900010BF0CCFD0F
:100970000022594BCDE902010BF09EFB22462B468B
:10098000CDE904010BF0C0FD0022544BCDE9080174
:10099000404649460BF0DCFACDE90601DDE90823C3
:1009A0000BF0A2FFCDE90A010BF01AFD80B20D9009
:1009B000AAF101000BF041FD32463B46CDE90201B0
:1009C0000BF0A2FDCDE906010F980BF036FDCDE945
:1009D0000401DDE906230BF0BBFA0022404BCDE910
:1009E00008010BF0B5FACDE90A010BF0F9FC80B271
:1009F0005B460C90DDE90D1206F007F80AF1010ADA
:100A0000BAF1130FFFF6B8AE11B0BDE8F08F2DE9C3
:100A1000FF5F344803904FF0000AC6E0BAF1000FC0
:100A200064D103980CF04AF880462F48D0E900635F
:100A3000324640460BF068FD0446002213460BF098
:100A400093FC06D10AF1150188B2DC2102F087F887
:100A5000A9E003980CF032F8804689462249D1E992
:100A60000063324649460BF04FFD04460BF0B8FCDC
:100A70001FFA80FB0AF1150188B2594602F06FF89F
:100A800091E033E0556F333A252E346C6656000002
:100A900088580020556F343A252E346C6656000075
:100AA000556F353A252E346C6656000062100020D2
:100AB000081000205448443A252E346C6625250041
:100AC000CDCCCCCCCCCC1E400000104000002E4041
:100AD0008810002066660A400000904000C0584020
:100AE0000000F03F3333DB418838002003980BF0DF
:100AF000E5FF80468946FE4901EB0A11D1E9006312
:100B0000324649460BF000FD0022FA4BCDE90001C8
:100B10000BF0F8FD04460BF063FC1FFA80FB0AF1B2
:100B2000150188B2594602F01AF803980BF0C6FF77
:100B3000CDE90001EE4901EB0A10D0E9006332462D
:100B4000DDE900010BF0E0FC04460022E94B0BF06C
:100B5000D9FD80460BF044FC1FFA80FB03980BF094
:100B6000ADFFCDE90001AAF101004100E04800EB32
:100B7000C100D0E900633246DDE900010BF0C4FC9E
:100B800004460022DB4B0BF0BDFD80460BF028FC39
:100B900080B20AF115018AB2491E029088B25B4602
:100BA000029905F032FF0AF1010ABAF1FF0F7FF74F
:100BB00035AFBDE8FF9F2DE9F04F87B014254FF00A
:100BC0008C094FF0DC0AAB464FF48C7006908C26F3
:100BD000192005906920049001200390652002905F
:100BE00019274FF001084FF47840C3490880C3A08B
:100BF00010210B462022CDE900100021084606F006
:100C000011F9BFA010210B462022CDE900100F21C1
:100C1000002006F007F9BBA010210B462022CDE9E9
:100C200000101E21002006F0FDF8B7A010210B4691
:100C30002022CDE900103221002006F0F3F8B3A005
:100C400010210B462022CDE900104621002006F09D
:100C5000E9F8AFA010210B462022CDE900105A215F
:100C60000A2006F0DFF8ABA010210B462022CDE9C8
:100C700000106421084606F0D5F8A7A010210B4605
:100C80002022CDE90010C82140F21D1006F0CAF85C
:100C9000A3A010210B461822CDE90010D7214FF454
:100CA000917006F0BFF89FA010210B462022CDE9DD
:100CB00000107821002006F0B5F89BA010210B460B
:100CC0002022CDE900108721012006F0ABF897A083
:100CD00010210B461822CDE90010DD21412006F03D
:100CE000A1F893A010210B461822CDE90010DD21B8
:100CF0006E2006F097F88FA010210B461822CDE940
:100D00000010DD219E2006F08DF88BA010210B46EF
:100D10001822CDE90010DD21D02006F083F887A04D
:100D200010210B461822CDE90010DD2140F20910F8
:100D300006F078F8102001230022DC2100900A2020
:100D400005F0B8FF4CF218606B490880012001F0F3
:100D5000FCFF00240EE0DDF808C01FFA8CF3BAB2E5
:100D6000DDF80CC01FFA8CF1B8B205F04EFE143756
:100D7000601C84B2052CEEDB002411E01FFA88F31E
:100D8000DDF810C01FFA8CF21FFA88F1DDF814C0EC
:100D90001FFA8CF005F039FE08F11408601C84B2CB
:100DA000062CEBDB00240AE01FFA8AF3AAB21FFA32
:100DB00089F1A8B205F029FE1435601C84B20E2C0E
:100DC000F2DB00240CE0B3B2DDF818C01FFA8CF29D
:100DD000B1B21FFA8BF005F018FE1436601C84B215
:100DE000062CF0DB00204449088078234FF4A072E1
:100DF0000021C82005F061FE13234FF4A0721946AC
:100E0000C82005F002FE27234FF4A0721946C8201F
:100E100005F0FBFD3B234FF4A0721946C82005F0F6
:100E2000F4FD4F234FF4A0721946C82005F0EDFDE4
:100E300063234FF4A0721946C82005F0E6FD78231D
:100E4000FA220021104605F0E0FD40F2CF102A49B9
:100E50000880002010233A4A14210090C92006F08F
:100E600040F800201023374A14210090D72006F0C4
:100E700038F800201023344A14210090E62006F0B0
:100E800030F800201023314A28210090D72006F0A6
:100E900028F8002010232E4A28210090E62006F092
:100EA00020F8002010232B4A3C210090D72006F088
:100EB00018F800201023264A3C210090E62006F076
:100EC00010F800201023244A50210090D72006F06B
:100ED00008F800201023214A50210090E62006F057
:100EE00000F8002010231E4A64210090D72039E02A
:100EF0008838002000806B406210002035560000CA
:100F000034560000335600003256000031560000BF
:100F100030000000740000006672652F00000000C1
:100F2000487A0000416D00002F560000316B000030
:100F3000326B0000336B0000346B0000356B000037
:100F4000BA080108DA080108FA0801085A09010874
:100F50007A0901089A090108BA090108DA090108A1
:100F6000FA09010805F0BDFF00201023FE4A6421A4
:100F70000090E62005F0B5FFFCA010210B461822DA
:100F8000CDE9001001214FF4827005F04BFF07B04E
:100F9000BDE8F08F38B54124F5480078A8BB40F291
:100FA000CF10F44908800020C4F1B401009088B249
:100FB0001023F14A002105F094FF0020C4F1C30181
:100FC000009088B21023ED4A002105F08AFF00202E
:100FD000C4F1D201009088B21023E94A002105F043
:100FE00080FF0020C4F1E101009088B21023E54A9F
:100FF000002105F076FF0020C4F1F001009088B2D6
:101000001023E14A002105F06CFFD948007801283F
:1010100035D140F2CF10D74908800020C4F1B40187
:10102000009088B21023D94A002105F05AFF002011
:10103000C4F1C301009088B21023D54A002105F005
:1010400050FF0020C4F1D201009088B21023CD4A95
:10105000002105F046FF0020C4F1E101009088B2B4
:101060001023C94A002105F03CFF0020C4F1F00123
:10107000009088B21023C74A002105F032FFBC4817
:101080000078022835D140F2CF10BA4908800020FC
:10109000C4F1B401009088B21023BF4A002105F0CA
:1010A00020FF0020C4F1C301009088B21023B84A89
:1010B000002105F016FF0020C4F1D201009088B293
:1010C0001023B04A002105F00CFF0020C4F1E1011B
:1010D000009088B21023AC4A002105F002FF0020E6
:1010E000C4F1F001009088B21023AA4A002105F053
:1010F000F8FE9F480078032835D140F2CF109D4973
:1011000008800020C4F1B401009088B21023A34AE3
:10111000002105F0E6FE0020C4F1C301009088B272
:1011200010239F4A002105F0DCFE0020C4F1D2010B
:10113000009088B21023934A002105F0D2FE0020CF
:10114000C4F1E101009088B210238F4A002105F01C
:10115000C8FE0020C4F1F001009088B210238D4A2F
:10116000002105F0BEFE82480078042835D140F207
:10117000CF10804908800020C4F1B401009088B2EB
:101180001023884A002105F0ACFE0020C4F1C30101
:10119000009088B21023744A002105F0A2FE0020BE
:1011A000C4F1D201009088B21023764A002105F0E4
:1011B00098FE0020C4F1E101009088B21023724A29
:1011C000002105F08EFE0020C4F1F001009088B2ED
:1011D0001023704A002105F084FE38BD10B5724816
:1011E000007820BB0221714808F0ABF804216F4859
:1011F00008F0A5F808216D4808F0A3F810216B4805
:1012000008F09DF82021694808F09BF840216748C4
:1012100008F095F88021654808F093F84FF4807144
:10122000624808F08EF84FF4617007F092F95E485A
:101230000078012824D102215C4808F082F80421BA
:101240005A4808F07EF80821584808F078F810212C
:10125000564808F074F82021544808F072F84021EC
:10126000524808F06EF88021504808F068F84FF4B2
:1012700080714E4808F065F84FF4617007F069F925
:1012800049480078022824D10221484808F057F83C
:101290000421464808F055F80821444808F051F860
:1012A0001021424808F04BF82021404808F049F846
:1012B00040213E4808F045F880213C4808F03FF8BE
:1012C0004FF48071394808F03CF84FF4617007F032
:1012D00040F935480078032824D10221334808F02A
:1012E00030F80421314808F02AF808212F4808F086
:1012F00028F810212D4808F022F820212B4808F06A
:1013000020F84021294808F01CF88021274808F0DF
:1013100018F84FF48071254808F011F84FF4617007
:1013200007F017F92048007804284AD102211F4805
:1013300008F007F804211D4808F001F808211B48AF
:1013400007F0FFFF1021194807F0FBFF2021174885
:1013500007F0F5FF4021154807F0F3FF80211348FF
:1013600007F0EDFF24E000001A0A01085448440089
:101370004E10002062100020BA080108DA080108A7
:10138000FA0801081A0901083A0901085A0901086E
:101390007A0901083A0A01089A090108BA090108FC
:1013A000DA090108FA0901084F100020001C014069
:1013B0004FF48071FE4807F0C4FF4FF4617007F0EE
:1013C000C8F810BD1CB5FB480078A8BBFA48AFF6BA
:1013D00018110CC8F94809F06FFCF84810210B46A9
:1013E000C822CDE9001014214FF4827005F01AFDD7
:1013F00000201023F24A282100904FF4827005F05B
:1014000070FD00201023EE4A3C2100904FF48270C2
:1014100005F067FD00201023E94A502100904FF4A9
:10142000827005F05EFD00201023E54A64210090E3
:101430004FF4827005F055FDDE480078012835D163
:10144000DD48AFF68C110CC8DC4809F035FCDB48F0
:1014500010210B46C822CDE9001028214FF48270DC
:1014600005F0E0FC00201023D54A142100904FF431
:10147000827005F036FD00201023D14A3C210090F7
:101480004FF4827005F02DFD00201023CC4A50212E
:1014900000904FF4827005F024FD00201023C84A0C
:1014A000642100904FF4827005F01BFDC148007864
:1014B000022835D1C048AFF600210CC8BF4809F05A
:1014C000FBFBBE4810210B46C822CDE900103C2191
:1014D0004FF4827005F0A6FC00201023B84A1421B6
:1014E00000904FF4827005F0FCFC00201023B44AF9
:1014F000282100904FF4827005F0F3FC00201023A7
:10150000AF4A502100904FF4827005F0EAFC0020B1
:101510001023AB4A642100904FF4827005F0E1FC87
:10152000A4480078032835D1A348AFF674210CC82D
:10153000A24809F0C1FBA14810210B46C822CDE901
:10154000001050214FF4827005F06CFC0020102335
:101550009B4A142100904FF4827005F0C2FC0020D9
:101560001023974A282100904FF4827005F0B9FCAF
:1015700000201023924A3C2100904FF4827005F025
:10158000B0FC002010238E4A642100904FF482703A
:1015900005F0A7FC87480078042835D18648AFF6C7
:1015A000E8210CC8854809F087FB844810210B46C8
:1015B000C822CDE9001064214FF4827005F032FC9E
:1015C000002010237E4A142100904FF4827005F011
:1015D00088FC002010237A4A282100904FF4827062
:1015E00005F07FFC00201023754A3C2100904FF449
:1015F000827005F076FC00201023714A5021009083
:101600004FF4827005F06DFC1CBD2DE9FC416D4866
:1016100000221346D0E9006130460AF0A5FE2DD124
:10162000684800221346D0E9026130460AF09CFE69
:1016300024D1644800221346D0E9046130460AF000
:1016400093FE1BD15F4800221346D0E90661304665
:101650000AF08AFE12D15B4800221346D0E90861E5
:1016600030460AF081FE09D100201023544A14218B
:1016700000904FF4827005F034FC41E0002500201A
:10168000514A1060506000241AE04E4800EBC4003C
:1016900000221346D0E9006130460AF065FE0DD005
:1016A000681CC5B2474800EBC400D0E9006332466D
:1016B000454903C90AF04CFC434A03C2601CC4B24A
:1016C000052CE2DB28460AF0CFFE064632460B46E2
:1016D0003D4903C90AF0F0FC3B4A03C23A48AFF661
:1016E00028410CC8354809F0E7FA344810210B4668
:1016F000C822CDE9001014214FF4827005F092FB4E
:10170000324800221346D0E9006130460AF02CFE30
:101710002DD12E4800221346D0E9026130460AF04E
:1017200023FE24D1294800221346D0E90461304623
:101730000AF01AFE1BD1254800221346D0E90661A3
:1017400030460AF011FE12D12049D1E90861002289
:10175000134630460AF008FE09D100201023184A2B
:10176000282100904FF4827005F0BBFB54E0002567
:101770000021174A1160516000242DE0134800EB4E
:10178000C40000221346D0E9006130460AF0ECFDA7
:101790000DD0681CC5B20D4800EBC401D1E900634F
:1017A00032460B4903C90AF0D3FB094A03C211E0D0
:1017B000001C01404E100020081000208858002016
:1017C000BA080108A058002010100020C8580020B6
:1017D00018100020601CC4B2052CCFDB28460AF08C
:1017E00043FE064632460B46FE4903C90AF064FC36
:1017F000FC4A03C2FB48AFF640510CC8FA4809F056
:101800005BFAF94810210B46C822CDE900102821C7
:101810004FF4827005F006FBF44800221346D0E92D
:10182000006130460AF0A0FD2DD1F0480022134699
:10183000D0E9026130460AF097FD24D1EB49D1E9A5
:1018400004610022134630460AF08EFD1BD1E748A2
:1018500000221346D0E9066130460AF085FD12D118
:10186000E249D1E908610022134630460AF07CFDC6
:1018700009D100201023DE4A3C2100904FF48270F1
:1018800005F02FFB41E000250021DA4A116051608C
:1018900000241AE0D54800EBC40000221346D0E92A
:1018A000006130460AF060FD0DD0681CC5B2CF481B
:1018B00000EBC400D0E900633246CE4903C90AF008
:1018C00047FBCC4A03C2601CC4B2052CE2DB2846AD
:1018D0000AF0CAFD064632460B46C64903C90AF05D
:1018E000EBFBC44A03C2C348AFF634610CC8BE4820
:1018F00009F0E2F9BC4810210B46C822CDE90010DE
:101900003C214FF4827005F08DFABB48002213464B
:10191000D0E9006130460AF027FD2DD1B649D1E962
:1019200002610022134630460AF01EFD24D1B2485F
:1019300000221346D0E9046130460AF015FD1BD1A0
:10194000AD4800221346D0E9066130460AF00CFD8E
:1019500012D1A949D1E908610022134630460AF0A4
:1019600003FD09D100201023A14A502100904FF41B
:10197000827005F0B6FA41E0002500219F4A11600F
:10198000516000241AE09C4800EBC401D1E90061D9
:101990000022134630460AF0E7FC0DD0681CC5B2A1
:1019A000954800EBC401D1E900633246934903C96D
:1019B0000AF0CEFA914A03C2601CC4B2052CE2DBE5
:1019C00028460AF051FD064632460B468B4903C9AC
:1019D0000AF072FB894A03C28848AFF624710CC82A
:1019E000814809F069F9804810210B46C822CDE9E9
:1019F000001050214FF4827005F014FA8048002244
:101A00001346D0E9006130460AF0AEFC2DD17C4887
:101A100000221346D0E9026130460AF0A5FC24D129
:101A20007749D1E904610022134630460AF09CFC54
:101A30001BD1734800221346D0E9066130460AF0F4
:101A400093FC12D16E4800221346D0E9086130465B
:101A50000AF08AFC09D100201023654A6421009015
:101A60004FF4827005F03DFA40E000250020654A01
:101A70001060506000241AE0614800EBC4000022AE
:101A80001346D0E9006130460AF06EFC0DD0681CA8
:101A9000C5B25B4800EBC401D1E900633246594945
:101AA00003C90AF055FA574A03C2601CC4B2052C98
:101AB000E2DB28460AF0D8FC064632460B4651497E
:101AC00003C90AF0F9FA4F4A03C24E484E490CC8FE
:101AD000454809F0F1F8444810210B46C822CDE9E9
:101AE000001064214FF4827005F09CF9BDE8FC8180
:101AF00008B500F00CFAFEF79DFBFEF7AFFB06F011
:101B0000EBFC05F054FB05F0EBFA4FF4A06006F097
:101B10006DFD05F0BCFB01F036FB00F079FA022107
:101B20003A4807F00EFC0421384807F008FC082169
:101B3000364807F006FC1021344807F000FC20214D
:101B4000324807F0FEFB4021304807F0F8FB8021C7
:101B50002E4807F0F6FB4FF480712C4807F0F1FB9C
:101B600041F61F414FF4FA7005F033FB4FF4784013
:101B7000274908800120F023264A282100900020D0
:101B800005F0AFF94FF47A7006F0E3FC4FF47A7089
:101B900006F0DFFC00201E4908804FF6FF7001F0C0
:101BA000C0FA0120F0231C4A28210090002005F0F3
:101BB00098F94FF47A7006F0CCFC4FF47A7006F086
:101BC000C8FC4FF47A7006F0C4FC4FF6FF7001F0C9
:101BD000A8FAFEF7F0FF0120104908700020104914
:101BE0000870DCE01810002088580020F058002011
:101BF000BA080108201000201859002028100020E1
:101C00004059002030100020B80A0008001C014094
:101C1000621000209AEC00087AD000084C100020D6
:101C20004D1000206A48007868B9FFF7D7FA4FF4E2
:101C30007A7006F08EFC0121664808F0D2FF01217F
:101C4000880708F023FC6448007858B94FF47A708C
:101C500006F07FFC01215F4808F0C3FF01218807DF
:101C600008F014FC5D4800880128BAD14FF6FF70D7
:101C700001F057FAFFF78EF9FEF79DFF00214FF0B4
:101C8000804008F003FC0021524808F0AAFF002021
:101C9000524908804FF4784051490880FEF7F6FB1E
:101CA000FEF703FBFEF70CFCFEF756FDFEF7AFFE5A
:101CB0000021484808F095FF00214FF0804008F0CF
:101CC000E5FB43480078002861D14648007848B9D0
:101CD0004548D0E90010454A454B1B7802EBC3024A
:101CE000C2E900103F480078012809D13E48D0E9F8
:101CF0000010404A3E4B1B7802EBC302C2E90010C1
:101D000038480078022809D13748D0E900103A4A0B
:101D1000374B1B7802EBC302C2E900103148007850
:101D2000032809D13048D0E90010344A304B1B78E1
:101D300002EBC302C2E900102A480078042809D146
:101D40002948D0E900102E4A294B1B7802EBC30228
:101D5000C2E9001026480078401C25490870084652
:101D60000078052810D1002008701E480078401C1B
:101D70001C49087008460078052801D10020087029
:101D8000184800781F490870FFF73FFC07E0124829
:101D9000007810B11C48007808B9FFF713FB41E741
:101DA00010B5022008F057FF70B1002406E0174874
:101DB00030F81400164921F81400641CB4F5806F43
:101DC000F5DB012005490880022008F058FF10BD0E
:101DD0004D100020080002404C100020FC0F002095
:101DE000621000204F10002008100020A058002092
:101DF00051100020C8580020F05800201859002029
:101E0000405900204E10002050100020765900202C
:101E100088100020704700BFFEE700BFFEE700BF4C
:101E2000FEE700BFFEE7704770477047704700004D
:101E30000CB50020019000906C48006840F48030A0
:101E40006A49086000BF6948006800F400300090EB
:101E50000198401C0190009818B90198B0F5A06F46
:101E6000F1D16248006800F4003010B10120009008
:101E700001E0002000900098012843D15C480068F0
:101E800040F010005A4908600846006820F003003E
:101E900008600846006840F0020008605348406847
:101EA000524948600846406848600846406840F427
:101EB000806048600846406820F47C10486008460E
:101EC000406840F4E81048600846006840F08070C0
:101ED000086000BF4548006800F000700028F9D095
:101EE0004248406820F00300404948600846406886
:101EF00040F00200486000BF3C48406800F00C0021
:101F00000828F9D10CBD10B5FFF792FF10BD10B530
:101F10003648006840F001003449086008464068CF
:101F20003449084031494860084600683249084051
:101F30002E4908600846006820F4802008600846A2
:101F4000406820F4FE0048604FF41F008860FFF7EF
:101F5000DAFF4FF000602949086010BD10B500217C
:101F600000200022214B5B6803F00C0121B1042901
:101F700006D0082928D107E0214B224C236027E016
:101F80001F4B204C236023E0184B5B6803F4701058
:101F9000164B5B6803F48032022303EB904022B9B6
:101FA000194B4343174C23600DE0104B5B6803F45F
:101FB000003323B1144B4343124C236003E0104B16
:101FC0004343104C236003E00D4B0E4C236000BFD5
:101FD00000BF064B5B68C3F303130C4CE15C094B79
:101FE0001B68CB40074C236010BD0000001002406E
:101FF000002002400000FFF8FFFFF6FE08ED00E0C1
:1020000000127A003810002000093D003C1000202A
:1020100008B50121080207F0A1FB7C20ADF8000003
:1020200001208DF8020048208DF803006946EA4837
:1020300007F0D8F80121202007F090FB4FF4605002
:10204000ADF8000001208DF8020048208DF8030053
:102050006946E24807F0C6F808BD10B54021DE48E1
:1020600007F053F988BBDE480088401CDC49088033
:102070000846008801282CD10221DA4807F061F9CE
:102080000421D84807F05BF90821D64807F059F930
:102090001021D44807F053F92021D24807F051F914
:1020A0004021D04807F04BF98021CE4807F049F98C
:1020B0004FF48071CB4807F044F94FF4487006F0B4
:1020C00048FA0020C849087003E0FFE70020C4492F
:1020D00008802021C04807F018F988BBC348008851
:1020E000401CC24908800846008801282CD10221E2
:1020F000BC4807F026F90421BA4807F022F9082164
:10210000B84807F01CF91021B64807F018F920214B
:10211000B44807F016F94021B24807F012F98021BF
:10212000B04807F00CF94FF48071AE4807F009F998
:102130004FF4487006F00DFA0120AB49087003E037
:10214000FFE70020A94908801021A34807F0DDF827
:1021500088BBA7480088401CA5490880084600881D
:1021600001282CD102219F4807F0E9F804219D485D
:1021700007F0E7F808219B4807F0E3F81021994899
:1021800007F0DDF82021974807F0DBF8402195485B
:1021900007F0D7F88021934807F0D1F84FF4807109
:1021A000904807F0CEF84FF4487006F0D2F90220BC
:1021B0008D49087003E0FFE700208D490880082161
:1021C000854807F0A2F888BB8A480088401C8949E6
:1021D00008800846008801282CD10221814807F098
:1021E000B0F804217F4807F0AAF808217D4807F0DD
:1021F000A8F810217B4807F0A2F82021794807F0C1
:10220000A0F84021774807F09CF88021754807F036
:1022100098F84FF48071734807F091F84FF44870C4
:1022200006F097F903207049087003E0FFE70020EB
:10223000704908804FF40051684807F066F888BB81
:102240006D480088401C6C490880084600880128B9
:102250002CD10221634807F074F80421614807F08B
:102260006EF808215F4807F06CF810215D4807F010
:1022700068F820215B4807F062F84021594807F0D0
:1022800060F88021574807F05AF84FF4807155489C
:1022900007F057F84FF4487006F05BF904205249F4
:1022A000087003E0FFE700205349088004214A48F2
:1022B00007F02BF8B0BB51480088401C4F490880FC
:1022C00008460088012831D100204D4908700120BE
:1022D0004C49087000204C490870434908704B492C
:1022E000087000241BE00021494A02EBC40211607F
:1022F0005160484A02EBC40211605160464A02EB49
:10230000C40211605160454A02EBC4021160516081
:10231000434A02EBC40211605160601CC4B2052C38
:10232000E1DB03E0FFE70020344908804FF48051EF
:102330002A4806F0EAFF60B93A480088401C39494B
:10234000088008460088012806D100203649087018
:1023500002E00020334908804FF400611F4806F076
:10236000D4FF98BB31480088401C3049088008469B
:10237000008801282ED12348007898B901202A49E5
:1023800008704FF4487006F0E4F80121284808F07E
:1023900028FC0121880708F079F84FF47A7006F0DC
:1023A000D8F817E04FF47A7006F0D3F800201549FA
:1023B000087001201249087000211D4808F011FC26
:1023C00000214FF0804008F061F803E0FFE70020B3
:1023D0001649088010BD0000002001400014014093
:1023E00052100020001C01404E100020541000200C
:1023F00056100020581000205C1000205A100020B9
:102400004D10002050100020511000204F100020CF
:10241000A0580020C8580020F0580020185900206B
:10242000405900205E1000204C1000206010002059
:1024300008000240F74908807047F649891C088067
:10244000704708B5F348801C00880090BDF8000074
:1024500008BDF04A1080921C1180704710B50446E8
:102460002046FFF7E7FF052006F04FF8FFF7E9FFEA
:1024700010BDE9480089E74908807047E549891C93
:102480000880704730B5014601F01F04C1F34513C1
:10249000CA0AE50205EB43151544A8B230BD00BFDA
:1024A000011EA0F10102D0B2FAD1704710B5034667
:1024B0000C46D948808849F24131884205D0D64837
:1024C000808845F21031884214D1D3494889FFF7FA
:1024D000B1FF1812FFF7B1FFD8B2FFF7AEFFCE4938
:1024E0008889FFF7A7FF2012FFF7A7FFE0B2FFF7E9
:1024F000A4FFABE0C848808846F6040188421DD19D
:10250000C5488079012804D1C3480088401EC01AFC
:1025100083B2C1494889FFF78DFF1812FFF78DFF7D
:10252000D8B2FFF78AFFBC498889FFF783FF2012E2
:10253000FFF783FFE0B2FFF780FF87E0B6488088AF
:1025400041F66311884247D1B3488079A8B9B248AF
:102550000088401EC01A83B2AF494889FFF76AFF5E
:102560000020FFF76AFF0020FFF767FF1812FFF750
:1025700064FFD8B2FFF761FF16E0A7494889FFF76B
:1025800059FF1812FFF759FFD8B2FFF756FFA249BB
:102590000988491EC1F30F20FFF74FFF9E490978B4
:1025A000491EC8B2FFF749FF9B498889FFF742FFE0
:1025B0002012FFF742FFE0B2FFF73FFF964949883C
:1025C000491EC1F30F20FFF738FF93498978491E50
:1025D000C8B2FFF732FF39E08F48808845F21051CA
:1025E000884220D18C494889FFF724FF1812FFF751
:1025F00024FF89494989491C88B2FFF71BFFD8B2DB
:10260000FFF71BFF84498889FFF714FF2012FFF7AB
:1026100014FF81498989491C88B2FFF70BFFE0B29A
:10262000FFF70BFF12E07C488079012804D17A483B
:102630000088401EC01A83B2774948891946FFF7BF
:1026400008FF754988892146FFF703FF10BD2DE972
:10265000F04105460E4600240027A0466E4800883B
:10266000A84203DD6C484088B04202DC0020BDE88F
:10267000F08131462846FFF719FF6748808849F204
:102680004131884211D06448808846F6040188426E
:102690000BD06148808845F21031884205D05E48F1
:1026A000808841F66311884203D12E20FFF7C2FED5
:1026B0000DE05948808845F21051884204D14FF40A
:1026C0003850FFF7B7FE02E02220FFF7B3FE524872
:1026D000808849F22031884202D10220FFF7DFFED4
:1026E000FFF7AFFE04464C48808841F663118842EC
:1026F00001D12046BBE70220FFF7D1FEFFF7A1FE84
:1027000004464548808849F2413188420BD042480E
:10271000808845F21031884205D03F48808845F2D4
:10272000105188420AD10220FFF7B9FEFFF789FE57
:102730008046E7B24FF6FF7000EA072736488088E8
:1027400049F22531884216D03348808844F2355109
:10275000884210D030488088091F88420BD02E480C
:1027600080884BF20551884205D02B4880884CF276
:102770000551884201D1204679E72748808849F2EF
:10278000413188420BD02448808845F2103188427C
:1027900005D02148808845F21051884207D1E012C7
:1027A000C002B91240EA411040EAE8205FE7204643
:1027B000FFF768FE5BE700B51748808849F24131B2
:1027C000884211D01448808846F6040188420BD014
:1027D0001148808845F21031884205D00E48808823
:1027E00041F66311884203D12920FFF723FE0FE051
:1027F0000948808845F21051884204D14FF4245092
:10280000FFF718FE04E040F273110720FFF721FEE6
:1028100000BD0000FE07006C6859002000B5FD48AF
:10282000808849F24131884211D0FA48808846F6C2
:10283000040188420BD0F748808845F21031884265
:1028400005D0F448808841F66311884203D12820DE
:10285000FFF7F0FD0EE0EF48808845F21051884206
:1028600004D14FF42050FFF7E5FD03E000210720DD
:10287000FFF7EFFD00BD70B5044600230026E548D4
:10288000807901280BD1E348808846F6040188420C
:1028900005D0E048808841F66311884208D1DD48C0
:1028A0008079F0B9DB48808841F66311884218D1FD
:1028B000082C15D2DFE804F00406080A0C0E1012EA
:1028C00006240DE007240BE0042409E0052407E0BA
:1028D000012405E0002403E0032401E0022400BFFA
:1028E00000BFCC48808849F24131884217D0C9489E
:1028F000808846F60401884211D0C648808845F297
:10290000103188420BD0C348808845F2105188426C
:1029100005D0C048808841F6631188427ED1082CDA
:102920001CD2DFE804F00406090C0F12151800BFD2
:1029300014E043F0800311E043F040030EE043F065
:10294000C0030BE043F0200308E043F0600305E020
:1029500043F0A00302E043F0E00300BF00BFAD4836
:10296000808845F21051884202D14FF4585600E059
:102970003626A848808845F2103188420DD0A548F7
:10298000808845F21051884207D0A248808841F6DD
:102990006311884201D043F008039E48808846F6C0
:1029A0000401884201D143F0020319463046FFF783
:1029B00050FD9848808841F6631188421DD003F08D
:1029C000200068B19348008892494988884214DA07
:1029D0009048058840888F490880084645800CE06B
:1029E0008C4800888B494988884206DD89480588DB
:1029F000408888490880084645808648808845F296
:102A00001051884254D183494889FFF713FD0020B3
:102A1000FFF713FD7F494989491C00E077E088B240
:102A2000FFF708FD0020FFF708FD7A494989891C56
:102A300088B2FFF7FFFC77490988491EC1F30F20D0
:102A4000FFF7FBFC73494989C91C88B2FFF7F2FC08
:102A500070490978491EC8B2FFF7EFFC6D498889B3
:102A6000FFF7E8FC0020FFF7E8FC6A498989491C68
:102A700088B2FFF7DFFC0020FFF7DFFC654989899A
:102A8000891C88B2FFF7D6FC62494988491EC1F308
:102A90000F20FFF7D2FC5F498989C91C88B2FFF774
:102AA000C9FC5C498978491EC8B2FFF7C6FC55E0ED
:102AB00058494889FFF7BEFC0020FFF7BEFC002004
:102AC000FFF7BBFC53490988491EC1F30F20FFF7EC
:102AD000B4FC50490978491EC8B2FFF7AEFC4D4915
:102AE0008889FFF7A7FC0020FFF7A7FC0020FFF76D
:102AF000A4FC48494988491EC1F30F20FFF79DFCFB
:102B000044498978491EC8B2FFF797FC26E0082C93
:102B10001CD2DFE804F004070A0D0F12151843F069
:102B2000300313E043F0100310E043F020030DE006
:102B300000BF0BE043F0380308E043F0280305E052
:102B400043F0180302E043F0080300BF00BF032670
:102B500043F4805319463046FFF77BFC70BD30B517
:102B600004460D4629462046FFF7A0FCFFF781FCEE
:102B7000294800882949088030BD30B503460C46F5
:102B800015462448808849F24131884205D02148C1
:102B9000808845F21031884214D11E494889FFF7D8
:102BA00049FC1812FFF749FCD8B2FFF746FC194957
:102BB0008889FFF73FFC2012FFF73FFCE0B2FFF7E8
:102BC0003CFC93E01348808845F21051884227D19D
:102BD00010494889FFF72EFC1812FFF72EFC0D490B
:102BE0004989491C88B2FFF725FCD8B2FFF725FCBC
:102BF00008498889FFF71EFC2012FFF71EFC0549D3
:102C00008989491C88B2FFF715FCE0B2FFF715FC73
:102C10006CE0000068590020621000200008006C81
:102C2000FC48808841F66311884228D1F9488079B0
:102C300020B9F8480088401EC01A83B2F549488977
:102C4000FFF7F8FB1812FFF7F8FBD8B2FFF7F5FB18
:102C50001812FFF7F2FBD8B2FFF7EFFBED498889B6
:102C6000FFF7E8FB2012FFF7E8FBE0B2FFF7E5FB18
:102C70002012FFF7E2FBE0B2FFF7DFFB36E0E548AA
:102C8000808846F6040188421DD1E24880790128F7
:102C900004D1E0480088401EC01A83B2DD4948894B
:102CA000FFF7C8FB1812FFF7C8FBD8B2FFF7C5FB48
:102CB000D8498889FFF7BEFB2012FFF7BEFBE0B2C0
:102CC000FFF7BBFB12E0D3488079012804D1D1483B
:102CD0000088401EC01A83B2CE4948891946FFF7C2
:102CE000B8FBCC4988892146FFF7B3FBC948008966
:102CF000C9490880881C058030BD2DE9F04704468D
:102D0000BE20FFF797FB0520FFF797FB204609F051
:102D1000ABFB07464FF06632C04B09F0F5FB0546AA
:102D200009F05EFB1FFA80F94846FFF786FB012099
:102D3000FFF783FBFF20FFF780FB0020FFF77DFB01
:102D40000020FFF77AFBBDE8F08710B50446002CA1
:102D500066D1B0498871F02008804FF4A070488097
:102D60000846808849F2413188420BD0A9488088C2
:102D700046F60401884205D0A648808845F2103105
:102D800088421AD12C20A34908812A2048812B206F
:102D900088810846808846F60401884205D09D480F
:102DA000808845F21031884206D14FF4A0709949CD
:102DB00008804FF4F0704880A1E09648808845F282
:102DC0001051884210D14FF43050924908814FF48D
:102DD000285048814FF42C5088814FF4F0700880BF
:102DE0004FF4487048808AE08A48808841F6631131
:102DF00088420DD12C20874908812B2048812A2028
:102E000088814FF4F07008804FF44870488076E075
:102E100022208049088120204881212088816EE07D
:102E200001207C4988714FF4A0700880F020488010
:102E30000846808849F24131884205D0754880882B
:102E400045F21031884207D12C20724908812A208E
:102E500048812B2088813FE06E48808846F6040137
:102E6000884207D12C206B4908812B2048812A20D9
:102E7000888131E06748808845F21051884210D13E
:102E80004FF43050634908814FF4285048814FF483
:102E90002C5088814FF4487008804FF4F0704880BF
:102EA0001AE05C48808841F6631188420DD12C20DD
:102EB000584908812A2048812B2088814FF4487086
:102EC00008804FF4F070488006E0222051490881C4
:102ED00021204881202088814E48808846F60401C0
:102EE000884205D04B48808845F21031884206D18F
:102EF0004FF4F070474908804FF4A07048800020DC
:102F0000FFF7B9FC10BD2DE9F04F86B004460D4621
:102F10009046994604EB0800401E86B205EB090076
:102F2000401E87B23B48808849F24131884215D023
:102F30003848808845F2103188420FD03548808863
:102F400046F60401884209D032488079012826D10A
:102F50003048808841F66311884220D12D49488944
:102F6000FFF768FA2012FFF768FAE0B2FFF765FA98
:102F70003012FFF762FAF0B2FFF75FFA254988894D
:102F8000FFF758FA2812FFF758FAE8B2FFF755FA98
:102F90003812FFF752FAF8B2FFF74FFABEE01D48B9
:102FA000808841F6631188423AD11A480088A0EB24
:102FB0000800001B84B205EB0900401E1FFA80F9CF
:102FC00014494889FFF736FA2012FFF736FAE0B2C3
:102FD000FFF733FA04EB0801491EC1F30F20FFF796
:102FE0002CFA04EB0801491EC8B2FFF726FA09497A
:102FF0008889FFF71FFA2812FFF71FFAE8B2FFF7D8
:103000001CFA4FEA2920FFF718FA09F0FF00FFF732
:1030100014FA83E068590020FE07006C66660440DD
:10302000FE48808845F21051884244D1FB494889C6
:10303000FFF700FA2012FFF700FAF8494989491C06
:1030400088B2FFF7F7F9E0B2FFF7F7F9F3494989DA
:10305000891C88B2FFF7EEF93012FFF7EEF9EF495D
:103060004989C91C88B2FFF7E5F9F0B2FFF7E5F925
:10307000EA498889FFF7DEF92812FFF7DEF9E74908
:103080008989491C88B2FFF7D5F9E8B2FFF7D5F96D
:10309000E2498989891C88B2FFF7CCF93812FFF719
:1030A000CCF9DE498989C91C88B2FFF7C3F9F8B2A7
:1030B000FFF7C3F932E0D948807901280ED1AA463A
:1030C000BB46D6480088801B401E80B20190D34882
:1030D0000088001B401E80B2009003E0A246B34669
:1030E00001950097502005905120049052200390A4
:1030F0005320029051460598FFF7ABF959460498C2
:10310000FFF7A7F901990398FFF7A3F9009902982F
:10311000FFF79FF929462046FFF7C8F906B0BDE83A
:10312000F08F70B504460026BC48058840884543AA
:10313000BA48808846F60401884216D1B74880799B
:10314000012812D10020B54988712A2048812B20FE
:10315000888100210846FFF7A9F90120AF4988714D
:103160002B2048812A20888103E000210846FFF7B0
:103170009DF9FFF77EF9002602E0A9480480761C3D
:10318000AE42FAD370BD00B59FB00121080206F02F
:10319000D8FA01214FF4B47006F0E0FA0120ADF83E
:1031A000780010208DF87B0003208DF87A001EA98E
:1031B0009C4806F017F84CF23370ADF878001820F0
:1031C0008DF87B0003208DF87A001EA9964806F042
:1031D00009F84FF68070ADF8780018208DF87B0064
:1031E00003208DF87A001EA9904805F0FBFF41F2FC
:1031F0000100ADF8780018208DF87B0003208DF8D1
:103200007A001EA98A4805F0EDFF012008900020F1
:1032100009900F200A9000200B900C900D900E90BA
:1032200001900290032003900020049005900690E6
:10323000079006200F9000201090119010201290FF
:103240000020139015901490169017904FF4805012
:103250001890002019904FF480401A9000201B9085
:1032600008A81C9001A81D900FA805F0A1FC012141
:10327000062005F005FE322005F06BF90020FFF76F
:10328000EDF86649888008468088FF280ADB0846F2
:1032900080884FF6FF71884204D060488088B0F57E
:1032A000134F7CD1D320FFF7C5F8FFF7CAF85B496D
:1032B0008880FFF7C6F859498880FFF7C2F8574958
:1032C0008880084680884FF6FF7101EA0020534944
:1032D0008880FFF7B6F85149898808434F498880AC
:1032E0000846808849F24131884258D0BF20FFF714
:1032F000A1F8FFF7A6F849498880FFF7A2F84749E7
:103300008880FFF79EF845498880FFF79AF843497F
:103310008880084680884FF6FF7101EA00203F4907
:103320008880FFF78EF83D49898808433B498880AB
:103330000846808846F60401884230D0D420FFF742
:1033400079F8FFF77EF835498880FFF77AF8334936
:103350008880FFF776F831498880084680884FF6E4
:10336000FF7101EA00202D498880FFF76AF82B4998
:1033700089880843294988800846808845F21031A9
:10338000884263D04FF45A40FFF754F8FFF759F8DA
:10339000224988804FF45B40FFF74CF800E055E08D
:1033A000FFF74FF81D498880084680884FF6FF7167
:1033B00001EA0020194988804FF45C40FFF73AF891
:1033C000FFF73FF815498988084314498880084663
:1033D0008088B0F5004F02D145F2105088800F4828
:1033E000808845F21051884230D0A120FFF722F8A2
:1033F000FFF727F809498880FFF723F807498880F5
:10340000084680884FF6FF7101EA00200349888052
:10341000FFF717F80149898808430BE06859002035
:103420000008006C000C014000140140001801402D
:1034300000200140FE4988800846808845F261717D
:10344000884203D141F66310F9498880F8488188A1
:10345000F8A007F025FCF648808849F241318842FF
:103460007ED1CF20FEF7E6FF0020FEF7E6FFC12069
:10347000FEF7E3FF3020FEF7E0FFED20FEF7DAFF76
:103480006420FEF7DAFF0320FEF7D7FF1220FEF7D5
:10349000D4FF8120FEF7D1FFE820FEF7CBFF852087
:1034A000FEF7CBFF1020FEF7C8FF7A20FEF7C5FF1E
:1034B000CB20FEF7BFFF3920FEF7BFFF2C20FEF721
:1034C000BCFF0020FEF7B9FF3420FEF7B6FF022054
:1034D000FEF7B3FFF720FEF7ADFF2020FEF7ADFFAC
:1034E000EA20FEF7A7FF0020FEF7A7FF0020FEF767
:1034F000A4FFC020FEF79EFF1B20FEF79EFFC12009
:10350000FEF798FF0120FEF798FFC520FEF792FF17
:103510003020FEF792FF3020FEF78FFFC720FEF726
:1035200089FFB720FEF789FF3620FEF783FF48208A
:10353000FEF783FF3A20FEF77DFF5520FEF77DFF63
:10354000B120FEF777FF0020FEF777FF1A20FEF785
:1035500074FFB620FEF76EFF0A20FEF76EFF00E054
:1035600097E0A220FEF769FFF220FEF763FF00203C
:10357000FEF763FF2620FEF75DFF0120FEF75DFFEB
:10358000E020FEF757FF0F20FEF757FF2A20FEF737
:1035900054FF2820FEF751FF0820FEF74EFF0E20B3
:1035A000FEF74BFF0820FEF748FF5420FEF745FFCB
:1035B000A920FEF742FF4320FEF73FFF0A20FEF757
:1035C0003CFF0F20FEF739FF0020FEF736FF0020FA
:1035D000FEF733FF0020FEF730FF0020FEF72DFF3F
:1035E000E120FEF727FF0020FEF727FF1520FEF75A
:1035F00024FF1720FEF721FF0720FEF71EFF1120F2
:10360000FEF71BFF0620FEF718FF2B20FEF715FF25
:103610005620FEF712FF3C20FEF70FFF0520FEF7B5
:103620000CFF1020FEF709FF0F20FEF706FF3F20DA
:10363000FEF703FF3F20FEF700FF0F20FEF7FDFE21
:103640002B20FEF7F7FE0020FEF7F7FE0020FEF726
:10365000F4FE0120FEF7F1FE3F20FEF7EEFE2A20E9
:10366000FEF7E8FE0020FEF7E8FE0020FEF7E5FE8C
:103670000020FEF7E2FEEF20FEF7DFFE1120FEF74E
:10368000D9FE782004F065FF2920FEF7D3FE03F071
:1036900022B96748808846F6040188427ED111200D
:1036A000FEF7C8FE142004F054FFD020FEF7C2FE3F
:1036B0000720FEF7C2FE4220FEF7BFFE1D20FEF7E8
:1036C000BCFED120FEF7B6FE0020FEF7B6FE1A20A3
:1036D000FEF7B3FE0920FEF7B0FED220FEF7AAFEE9
:1036E0000120FEF7AAFE2220FEF7A7FEC020FEF76B
:1036F000A1FE1020FEF7A1FE3B20FEF79EFE00205B
:10370000FEF79BFE0220FEF798FE1120FEF795FEC5
:10371000C520FEF78FFE0320FEF78FFEC820FEF7C0
:1037200089FE0020FEF789FE2520FEF786FE212077
:10373000FEF783FE0520FEF780FE0020FEF77DFEEB
:103740000A20FEF77AFE6520FEF777FE2520FEF7B9
:1037500074FE7720FEF771FE5020FEF76EFE0F20FC
:10376000FEF76BFE0020FEF768FEF820FEF762FE13
:103770000120FEF762FEFE20FEF75CFE0020FEF751
:103780005CFE0220FEF759FE2020FEF753FE362095
:10379000FEF750FE0820FEF750FE00E02AE03A2037
:1037A000FEF748FE5520FEF748FE2B20FEF742FEAE
:1037B0000020FEF742FE0020FEF73FFE0120FEF74C
:1037C0003CFE3F20FEF739FE2A20FEF733FE0020A4
:1037D000FEF733FE0020FEF730FE0120FEF72DFE3F
:1037E000DF20FEF72AFE782004F0B3FE2920FEF742
:1037F00021FE4CE70E48808845F21031884240F0A7
:103800008487ED20FEF716FE0120FEF716FEFE204F
:10381000FEF713FEEE20FEF70DFEDE20FEF70DFE96
:103820002120FEF70AFEF120FEF704FE012009E048
:1038300068590020204C43442049443A25780D0A19
:1038400000000000FEF7F9FDDF20FEF7F3FD102079
:10385000FEF7F3FDC420FEF7EDFD8F20FEF7EDFD32
:10386000C620FEF7E7FD0020FEF7E7FDE220FEF7A9
:10387000E4FDE220FEF7E1FDE220FEF7DEFDBF20E1
:10388000FEF7D8FDAA20FEF7D8FDB020FEF7D2FD46
:103890000D20FEF7D2FD0020FEF7CFFD0D20FEF734
:1038A000CCFD0020FEF7C9FD1120FEF7C6FD00206B
:1038B000FEF7C3FD1920FEF7C0FD0020FEF7BDFD99
:1038C0002120FEF7BAFD0020FEF7B7FD2D20FEF700
:1038D000B4FD0020FEF7B1FD3D20FEF7AEFD002057
:1038E000FEF7ABFD5D20FEF7A8FD0020FEF7A5FD6D
:1038F0005D20FEF7A2FD0020FEF79FFDB120FEF740
:1039000099FD8020FEF799FD0020FEF796FD8B20A3
:10391000FEF793FD0020FEF790FD9620FEF78DFD4B
:103920000020FEF78AFDB220FEF784FD0020FEF79E
:1039300084FD0020FEF781FD0220FEF77EFD0020C1
:10394000FEF77BFD0320FEF778FD0020FEF775FDF6
:10395000B320FEF76FFD0020FEF76FFD0020FEF79D
:103960006CFD0020FEF769FD0020FEF766FD0020DB
:10397000FEF763FD0020FEF760FD0020FEF75DFD11
:103980000020FEF75AFD0020FEF757FD0020FEF74D
:1039900054FD0020FEF751FD0020FEF74EFD0020F3
:1039A000FEF74BFD0020FEF748FD0020FEF745FD29
:1039B0000020FEF742FD0020FEF73FFD0020FEF74D
:1039C0003CFD0020FEF739FD0020FEF736FD00200B
:1039D000FEF733FD0020FEF730FD0020FEF72DFD41
:1039E0000020FEF72AFDB420FEF724FD8B20FEF711
:1039F00024FD0020FEF721FD9620FEF71EFD00208D
:103A0000FEF71BFDA120FEF718FD0020FEF715FDB7
:103A1000B520FEF70FFD0220FEF70FFD0020FEF798
:103A20000CFD0320FEF709FD0020FEF706FD042033
:103A3000FEF703FD0020FEF700FDB620FEF7FAFCBE
:103A40000020FEF7FAFC0020FEF7F7FCB720FEF797
:103A5000F1FC0020FEF7F1FC0020FEF7EEFC3F2019
:103A6000FEF7EBFC0020FEF7E8FC5E20FEF7E5FC2D
:103A70000020FEF7E2FC6420FEF7DFFC0020FEF7EA
:103A8000DCFC8C20FEF7D9FC0020FEF7D6FCAC2035
:103A9000FEF7D3FC0020FEF7D0FCDC20FEF7CDFCC7
:103AA0000020FEF7CAFC7020FEF7C7FC0020FEF7DE
:103AB000C4FC9020FEF7C1FC0020FEF7BEFCEB200A
:103AC000FEF7BBFC0020FEF7B8FCDC20FEF7B5FCDF
:103AD0000020FEF7B2FCB820FEF7ACFC0020FEF799
:103AE000ACFC0020FEF7A9FC0020FEF7A6FC00209D
:103AF000FEF7A3FC0020FEF7A0FC0020FEF79DFCD3
:103B00000020FEF79AFC0020FEF797FCBA20FEF793
:103B100091FC2420FEF791FC0020FEF78EFC002093
:103B2000FEF78BFC0020FEF788FCC120FEF782FC2C
:103B30002020FEF782FC0020FEF77FFC5420FEF7D9
:103B40007CFC0020FEF779FCFF20FEF776FC0020CD
:103B5000FEF773FCC220FEF76DFC0A20FEF76DFC39
:103B60000020FEF76AFC0420FEF767FC0020FEF749
:103B700064FCC320FEF75EFC3C20FEF75EFC0020E8
:103B8000FEF75BFC3A20FEF758FC0020FEF755FCE0
:103B90003920FEF752FC0020FEF74FFC3720FEF7DD
:103BA0004CFC0020FEF749FC3C20FEF746FC0020C0
:103BB000FEF743FC3620FEF740FC0020FEF73DFCFC
:103BC0003220FEF73AFC0020FEF737FC2F20FEF7EC
:103BD00034FC0020FEF731FC2C20FEF72EFC0020E8
:103BE000FEF72BFC2920FEF728FC0020FEF725FC21
:103BF0002620FEF722FC0020FEF71FFC2420FEF703
:103C00001CFC0020FEF719FC2420FEF716FC002007
:103C1000FEF713FC2320FEF710FC0020FEF70DFC3E
:103C20003C20FEF70AFC0020FEF707FC3620FEF7DA
:103C300004FC0020FEF701FC3220FEF7FEFB002012
:103C4000FEF7FBFB2F20FEF7F8FB0020FEF7F5FB4D
:103C50002C20FEF7F2FB0020FEF7EFFB2920FEF7F9
:103C6000ECFB0020FEF7E9FB2620FEF7E6FB002038
:103C7000FEF7E3FB2420FEF7E0FB0020FEF7DDFB70
:103C80002420FEF7DAFB0020FEF7D7FB2320FEF707
:103C9000D4FB0020FEF7D1FBC420FEF7CBFB622053
:103CA000FEF7CBFB0020FEF7C8FB0520FEF7C5FBA7
:103CB0000020FEF7C2FB8420FEF7BFFB0020FEF7CA
:103CC000BCFBF020FEF7B9FB0020FEF7B6FB182086
:103CD000FEF7B3FB0020FEF7B0FBA420FEF7ADFB20
:103CE0000020FEF7AAFB1820FEF7A7FB0020FEF736
:103CF000A4FB5020FEF7A1FB0020FEF79EFB0C204A
:103D0000FEF79BFB0020FEF798FB1720FEF795FBC4
:103D10000020FEF792FB9520FEF78FFB0020FEF7B8
:103D20008CFBF320FEF789FB0020FEF786FBE620E4
:103D3000FEF783FB0020FEF780FBC520FEF77AFB31
:103D40003220FEF77AFB0020FEF777FB4420FEF7D7
:103D500074FB0020FEF771FB6520FEF76EFB002070
:103D6000FEF76BFB7620FEF768FB0020FEF765FB95
:103D70008820FEF762FB0020FEF75FFBC620FEF7FF
:103D800059FB2020FEF759FB0020FEF756FB1720B9
:103D9000FEF753FB0020FEF750FB0120FEF74DFB22
:103DA0000020FEF74AFBC720FEF744FB0020FEF789
:103DB00044FB0020FEF741FB0020FEF73EFB002005
:103DC000FEF73BFBC820FEF735FB0020FEF735FB76
:103DD0000020FEF732FB0020FEF72FFB0020FEF74D
:103DE0002CFBC920FEF726FB0020FEF726FB002057
:103DF000FEF723FB0020FEF720FB0020FEF71DFB53
:103E00000020FEF71AFB0020FEF717FB0020FEF74C
:103E100014FB0020FEF711FB0020FEF70EFB002034
:103E2000FEF70BFB0020FEF708FB0020FEF705FB6A
:103E30000020FEF702FB0020FEF7FFFA0020FEF74D
:103E4000FCFA0020FEF7F9FAE020FEF7F3FA16205C
:103E5000FEF7F3FA0020FEF7F0FA1C20FEF7EDFA69
:103E60000020FEF7EAFA2120FEF7E7FA0020FEF72D
:103E7000E4FA3620FEF7E1FA0020FEF7DEFA4620EB
:103E8000FEF7DBFA0020FEF7D8FA5220FEF7D5FA4B
:103E90000020FEF7D2FA6420FEF7CFFA0020FEF7EA
:103EA000CCFA7A20FEF7C9FA0020FEF7C6FA8B207A
:103EB000FEF7C3FA0020FEF7C0FA9920FEF7BDFA1C
:103EC0000020FEF7BAFAA820FEF7B7FA0020FEF7A6
:103ED000B4FAB920FEF7B1FA0020FEF7AEFAC4201A
:103EE000FEF7ABFA0020FEF7A8FACA20FEF7A5FA03
:103EF0000020FEF7A2FAD220FEF79FFA0020FEF77C
:103F00009CFAD920FEF799FA0020FEF796FAE020F5
:103F1000FEF793FA0020FEF790FAF320FEF78DFAF1
:103F20000020FEF78AFAE120FEF784FA1620FEF759
:103F300084FA0020FEF781FA1C20FEF77EFA0020AA
:103F4000FEF77BFA2220FEF778FA0020FEF775FADA
:103F50003620FEF772FA0020FEF76FFA4520FEF7D2
:103F60006CFA0020FEF769FA5220FEF766FA00208C
:103F7000FEF763FA6420FEF760FA0020FEF75DFAB0
:103F80007A20FEF75AFA0020FEF757FA8B20FEF748
:103F900054FA0020FEF751FA9920FEF74EFA00205D
:103FA000FEF74BFAA820FEF748FA0020FEF745FA84
:103FB000B920FEF742FA0020FEF73FFAC420FEF7D0
:103FC0003CFA0020FEF739FACA20FEF736FA002044
:103FD000FEF733FAD220FEF730FA0020FEF72DFA72
:103FE000D820FEF72AFA0020FEF727FAE020FEF795
:103FF00024FA0020FEF721FAF320FEF71EFA002033
:10400000FEF71BFAE220FEF715FA0520FEF715FA77
:104010000020FEF712FA0B20FEF70FFA0020FEF741
:104020000CFA1B20FEF709FA0020FEF706FA3420EE
:10403000FEF703FA0020FEF700FA4420FEF7FDF930
:104040000020FEF7FAF94F20FEF7F7F90020FEF7FF
:10405000F4F96120FEF7F1F90020FEF7EEF979207E
:10406000FEF7EBF90020FEF7E8F98820FEF7E5F906
:104070000020FEF7E2F99720FEF7DFF90020FEF7B7
:10408000DCF9A620FEF7D9F90020FEF7D6F9B72013
:10409000FEF7D3F90020FEF7D0F9C220FEF7CDF9E4
:1040A0000020FEF7CAF9C720FEF7C7F90020FEF787
:1040B000C4F9D120FEF7C1F90020FEF7BEF9D620E1
:1040C000FEF7BBF90020FEF7B8F9DD20FEF7B5F9E1
:1040D0000020FEF7B2F9F320FEF7AFF90020FEF75B
:1040E000ACF9E320FEF7A6F90520FEF7A6F90020BB
:1040F000FEF7A3F90A20FEF7A0F90020FEF79DF9CC
:104100001C20FEF79AF90020FEF797F93320FEF7FE
:1041100094F90020FEF791F94420FEF78EF9002073
:10412000FEF78BF95020FEF788F90020FEF785F99D
:104130006220FEF782F90020FEF77FF97820FEF773
:104140007CF90020FEF779F98820FEF776F9002047
:10415000FEF773F99720FEF770F90020FEF76DF96E
:10416000A620FEF76AF90020FEF767F9B720FEF7F0
:1041700064F90020FEF761F9C220FEF75EF9002025
:10418000FEF75BF9C720FEF758F90020FEF755F956
:10419000D120FEF752F90020FEF74FF9D520FEF7A7
:1041A0004CF90020FEF749F9DD20FEF746F9002022
:1041B000FEF743F9F320FEF740F90020FEF73DF942
:1041C000E420FEF737F90120FEF737F90020FEF76B
:1041D00034F90120FEF731F90020FEF72EF9022014
:1041E000FEF72BF90020FEF728F92A20FEF725F923
:1041F0000020FEF722F93C20FEF71FF90020FEF711
:104200001CF94B20FEF719F90020FEF716F95D2086
:10421000FEF713F90020FEF710F97420FEF70DF9F0
:104220000020FEF70AF98420FEF707F90020FEF7C8
:1042300004F99320FEF701F90020FEF7FEF8A22012
:10424000FEF7FBF80020FEF7F8F8B320FEF7F5F8CC
:104250000020FEF7F2F8BE20FEF7EFF80020FEF790
:10426000ECF8C420FEF7E9F80020FEF7E6F8CD20D0
:10427000FEF7E3F80020FEF7E0F8D320FEF7DDF8C4
:104280000020FEF7DAF8DD20FEF7D7F80020FEF771
:10429000D4F8F320FEF7D1F80020FEF7CEF8E520A1
:1042A000FEF7C8F80020FEF7C8F80020FEF7C5F8B2
:1042B0000020FEF7C2F80020FEF7BFF80220FEF74C
:1042C000BCF80020FEF7B9F82920FEF7B6F8002068
:1042D000FEF7B3F83C20FEF7B0F80020FEF7ADF88B
:1042E0004B20FEF7AAF80020FEF7A7F85D20FEF7A6
:1042F000A4F80020FEF7A1F87420FEF79EF8002035
:10430000FEF79BF88420FEF798F80020FEF795F85A
:104310009320FEF792F80020FEF78FF8A220FEF718
:104320008CF80020FEF789F8B320FEF786F800200D
:10433000FEF783F8BE20FEF780F80020FEF77DF838
:10434000C420FEF77AF80020FEF777F8CD20FEF7BC
:1043500074F80020FEF771F8D320FEF76EF8002005
:10436000FEF76BF8DC20FEF768F80020FEF765F832
:10437000F320FEF762F80020FEF75FF8E620FEF774
:1043800059F81120FEF759F80020FEF756F83420AE
:10439000FEF753F80020FEF750F85620FEF74DF8D0
:1043A0000020FEF74AF87620FEF747F80020FEF7D7
:1043B00044F87720FEF741F80020FEF73EF866202B
:1043C000FEF73BF80020FEF738F88820FEF735F8B6
:1043D0000020FEF732F89920FEF72FF80020FEF7B4
:1043E0002CF8BB20FEF729F80020FEF726F89920CC
:1043F000FEF723F80020FEF720F86620FEF71DF8F0
:104400000020FEF71AF85520FEF717F80020FEF7F7
:1044100014F85520FEF711F80020FEF70EF845209D
:10442000FEF70BF80020FEF708F84320FEF705F82A
:104430000020FEF702F84420FDF7FFFF0020FDF703
:10444000FCFFE720FDF7F6FF3220FDF7F6FF002026
:10445000FDF7F3FF5520FDF7F0FF0020FDF7EDFF1E
:104460007620FDF7EAFF0020FDF7E7FF6620FDF765
:10447000E4FF0020FDF7E1FF6720FDF7DEFF0020ED
:10448000FDF7DBFF6720FDF7D8FF0020FDF7D5FF24
:104490008720FDF7D2FF0020FDF7CFFF9920FDF721
:1044A000CCFF0020FDF7C9FFBB20FDF7C6FF0020B1
:1044B000FDF7C3FF9920FDF7C0FF0020FDF7BDFF0A
:1044C0007720FDF7BAFF0020FDF7B7FF4420FDF786
:1044D000B4FF0020FDF7B1FF5620FDF7AEFF00202E
:1044E000FDF7ABFF2320FDF7A8FF0020FDF7A5FF98
:1044F0003320FDF7A2FF0020FDF79FFF4520FDF7C9
:104500009CFF0020FDF799FFE820FDF793FF0020B6
:10451000FDF793FF0020FDF790FF9920FDF78DFF39
:104520000020FDF78AFF8720FDF787FF0020FDF7B9
:1045300084FF8820FDF781FF0020FDF77EFF7720B4
:10454000FDF77BFF0020FDF778FF6620FDF775FF84
:104550000020FDF772FF8820FDF76FFF0020FDF7B8
:104560006CFFAA20FDF769FF0020FDF766FFBB2066
:10457000FDF763FF0020FDF760FF9920FDF75DFF69
:104580000020FDF75AFF6620FDF757FF0020FDF7DA
:1045900054FF5520FDF751FF0020FDF74EFF552039
:1045A000FDF74BFF0020FDF748FF4420FDF745FFD6
:1045B0000020FDF742FF4420FDF73FFF0020FDF7FC
:1045C0003CFF5520FDF739FF0020FDF736FFE920BD
:1045D000FDF730FFAA20FDF730FF0020FDF72DFF8B
:1045E0000020FDF72AFF0020FDF727FF0020FDF740
:1045F00021FFAA20FDF721FFCF20FDF71BFF0020A0
:10460000FDF71BFF0020FDF718FF0020FDF715FF49
:104610000020FDF712FF0020FDF70FFF0020FDF73F
:104620000CFF0020FDF709FF0020FDF706FF00202A
:10463000FDF703FF0020FDF700FF0020FDF7FDFE62
:104640000020FDF7FAFE0020FDF7F7FE0020FDF741
:10465000F4FE0020FDF7F1FE0020FDF7EEFE002045
:10466000FDF7EBFEF020FDF7E5FE0020FDF7E5FE8F
:104670005020FDF7E2FE0020FDF7DFFE0020FDF7F1
:10468000DCFE0020FDF7D9FEF320FDF7D3FE00206D
:10469000FDF7D3FEF920FDF7CDFE0620FDF7CDFE98
:1046A0001020FDF7CAFE2920FDF7C7FE0020FDF708
:1046B000C4FE3A20FDF7BEFE5520FDF7BEFE1120D8
:1046C000FDF7B8FE642003F044FF2920FDF7B2FE99
:1046D0003520FDF7AFFE0020FDF7AFFE5120FDF7BE
:1046E000A9FEFF20FDF7A9FE5320FDF7A3FE2C2015
:1046F000FDF7A3FE5520FDF79DFE8220FDF79DFEF0
:104700002C20FDF797FE02F0E6B8FE48808845F2BF
:10471000105188427ED155214FF47040FDF799FE2B
:10472000AA214FF20100FDF794FE52214FF2020040
:10473000FDF78FFE08214FF20300FDF78AFE0121ED
:104740004FF20400FDF785FE0D214FF43040FDF7D8
:1047500080FE0D214BF20100FDF77BFE0D214BF297
:104760000200FDF776FE34214FF43640FDF771FE6E
:1047700034214BF20160FDF76CFE34214BF20260F4
:10478000FDF767FE0D214FF43140FDF762FE0D216C
:104790004BF20110FDF75DFE0D214BF20210FDF70B
:1047A00058FE34214FF43740FDF753FE34214BF2CD
:1047B0000170FDF74EFE34214BF20270FDF749FE09
:1047C00000214FF43240FDF744FE00214BF201205E
:1047D000FDF73FFE00214BF20220FDF73AFE2421B7
:1047E0004FF43840FDF735FE24214BF60100FDF76C
:1047F00030FE24214BF60200FDF72BFE01214FF481
:104800003F40FDF726FE0F214FF43340FDF721FE18
:104810000F2100E0FEE34BF20130FDF71AFE0F21FD
:104820004BF20230FDF715FE34214FF43940FDF70D
:1048300010FE34214BF60110FDF70BFE34214BF630
:104840000210FDF706FE08214FF43540FDF701FE8A
:1048500008214BF20150FDF7FCFD08214BF20250FC
:10486000FDF7F7FD03214FF44240FDF7F2FD24214F
:104870004FF43A40FDF7EDFD24214BF60120FDF702
:10488000E8FD24214BF60220FDF7E3FD00214FF463
:104890003C40FDF7DEFD78214BF60140FDF7D9FDE8
:1048A00000214BF60240FDF7D4FD00214FF43D40BE
:1048B000FDF7CFFD78214BF60150FDF7CAFD002131
:1048C0004BF60250FDF7C5FD00214FF43E40FDF7C9
:1048D000C0FD64214BF60160FDF7BBFD00214FF4E4
:1048E0005140FDF7B6FD33214DF20110FDF7B1FD4A
:1048F00000214DF20210FDF7ACFD34214DF2031002
:10490000FDF7A7FD00214DF20410FDF7A2FD3A21AD
:104910004DF20510FDF79DFD00214DF20610FDF74B
:1049200098FD4A214DF20710FDF793FD00214DF24D
:104930000810FDF78EFD5C214DF20910FDF789FD91
:1049400000214DF20A10FDF784FD81214DF20B107C
:10495000FDF77FFD00214DF20C10FDF77AFDA62139
:104960004DF20D10FDF775FD00214DF20E10FDF713
:1049700070FDE5214DF20F10FDF76BFD01214DF2A9
:104980001010FDF766FD13214DF21110FDF761FDCA
:1049900001214DF21210FDF75CFD54214DF2131070
:1049A000FDF757FD01214DF21410FDF752FD822154
:1049B0004DF21510FDF74DFD01214DF21610FDF7DA
:1049C00048FDCA214DF21710FDF743FD02214DF2BB
:1049D0001810FDF73EFD00214DF21910FDF739FDCD
:1049E00002214DF21A10FDF734FD01214DF21B108A
:1049F000FDF72FFD02214DF21C10FDF72AFD342199
:104A00004DF21D10FDF725FD02214DF21E10FDF7A0
:104A100020FD67214DF21F10FDF71BFD02214DF215
:104A20002010FDF716FD84214DF22110FDF711FD38
:104A300002214DF22210FDF70CFDA4214DF22310AE
:104A4000FDF707FD02214DF22410FDF702FDB7210D
:104A50004DF22510FDF7FDFC02214DF22610FDF769
:104A6000F8FCCF214DF22710FDF7F3FC02214DF2A7
:104A70002810FDF7EEFCDE214DF22910FDF7E9FCD0
:104A800002214DF22A10FDF7E4FCF2214DF22B1029
:104A9000FDF7DFFC02214DF22C10FDF7DAFCFE21C0
:104AA0004DF22D10FDF7D5FC03214DF22E10FDF730
:104AB000D0FC10214DF22F10FDF7CBFC03214DF25D
:104AC0003010FDF7C6FC33214DF23110FDF7C1FC6B
:104AD00003214DF23210FDF7BCFC6D214DF2331075
:104AE000FDF7B7FC00214FF45240FDF7B2FC332133
:104AF0004DF20120FDF7ADFC00214DF20220FDF743
:104B0000A8FC01E06859002034214DF20320FDF794
:104B1000A0FC00214DF20420FDF79BFC3A214DF250
:104B20000520FDF796FC00214DF20620FDF791FCD3
:104B30004A214DF20720FDF78CFC00214DF20820A0
:104B4000FDF787FC5C214DF20920FDF782FC002176
:104B50004DF20A20FDF77DFC81214DF20B20FDF77F
:104B600078FC00214DF20C20FDF773FCA6214DF2DC
:104B70000D20FDF76EFC00214DF20E20FDF769FCC3
:104B8000E5214DF20F20FDF764FC01214DF21020CC
:104B9000FDF75FFC13214DF21120FDF75AFC0121B6
:104BA0004DF21220FDF755FC54214DF21320FDF774
:104BB00050FC01214DF21420FDF74BFC82214DF2F7
:104BC0001520FDF746FC01214DF21620FDF741FCB2
:104BD000CA214DF21720FDF73CFC02214DF21820AE
:104BE000FDF737FC00214DF21920FDF732FC0221C0
:104BF0004DF21A20FDF72DFC01214DF21B20FDF78F
:104C000028FC02214DF21C20FDF723FC34214DF23B
:104C10001D20FDF71EFC02214DF21E20FDF719FCA0
:104C200067214DF21F20FDF714FC02214DF22020D8
:104C3000FDF70FFC84214DF22120FDF70AFC022133
:104C40004DF22220FDF705FCA4214DF22320FDF7B3
:104C500000FC02214DF22420FDF7FBFBB7214DF2B1
:104C60002520FDF7F6FB02214DF22620FDF7F1FB92
:104C7000CF214DF22720FDF7ECFB02214DF2282039
:104C8000FDF7E7FBDE214DF22920FDF7E2FB0221D3
:104C90004DF22A20FDF7DDFBF2214DF22B20FDF72E
:104CA000D8FB02214DF22C20FDF7D3FBFE214DF263
:104CB0002D20FDF7CEFB03214DF22E20FDF7C9FB81
:104CC00010214DF22F20FDF7C4FB03214DF23020BF
:104CD000FDF7BFFB33214DF23120FDF7BAFB032175
:104CE0004DF23220FDF7B5FB6D214DF23320FDF77B
:104CF000B0FB00214FF45340FDF7ABFB33214DF2E5
:104D00000130FDF7A6FB00214DF20230FDF7A1FBBB
:104D100034214DF20330FDF79CFB00214DF20430AD
:104D2000FDF797FB3A214DF20530FDF792FB00218C
:104D30004DF20630FDF78DFB4A214DF20730FDF7AD
:104D400088FB00214DF20830FDF783FB5C214DF21A
:104D50000930FDF77EFB00214DF20A30FDF779FBAB
:104D600081214DF20B30FDF774FB00214DF20C3028
:104D7000FDF76FFBA6214DF20D30FDF76AFB002118
:104D80004DF20E30FDF765FBE5214DF20F30FDF7DA
:104D900060FB01214DF21030FDF75BFB13214DF25A
:104DA0001130FDF756FB01214DF21230FDF751FB9A
:104DB00054214DF21330FDF74CFB01214DF214301C
:104DC000FDF747FB82214DF21530FDF742FB012133
:104DD0004DF21630FDF73DFBCA214DF21730FDF7BD
:104DE00038FB02214DF21830FDF733FB00214DF264
:104DF0001930FDF72EFB02214DF21A30FDF729FB89
:104E000001214DF21B30FDF724FB02214DF21C3035
:104E1000FDF71FFB34214DF21D30FDF71AFB022177
:104E20004DF21E30FDF715FB67214DF21F30FDF7E7
:104E300010FB02214DF22030FDF70BFB84214DF2D7
:104E40002130FDF706FB02214DF22230FDF701FB78
:104E5000A4214DF22330FDF7FCFA02214DF224305B
:104E6000FDF7F7FAB7214DF22530FDF7F2FA0221EE
:104E70004DF22630FDF7EDFACF214DF22730FDF748
:104E8000E8FA02214DF22830FDF7E3FADE214DF277
:104E90002930FDF7DEFA02214DF22A30FDF7D9FA6A
:104EA000F2214DF22B30FDF7D4FA02214DF22C30D5
:104EB000FDF7CFFAFE214DF22D30FDF7CAFA03219E
:104EC0004DF22E30FDF7C5FA10214DF22F30FDF7CF
:104ED000C0FA03214DF23030FDF7BBFA33214DF219
:104EE0003130FDF7B6FA03214DF23230FDF7B1FA59
:104EF0006D214DF23330FDF7ACFA00214FF45440F0
:104F0000FDF7A7FA33214DF20140FDF7A2FA002187
:104F10004DF20240FDF79DFA34214DF20340FDF7BA
:104F200098FA00214DF20440FDF793FA3A214DF230
:104F30000540FDF78EFA00214DF20640FDF789FA93
:104F40004A214DF20740FDF784FA00214DF2084056
:104F5000FDF77FFA5C214DF20940FDF77AFA002156
:104F60004DF20A40FDF775FA81214DF20B40FDF735
:104F700070FA00214DF20C40FDF76BFAA6214DF2BC
:104F80000D40FDF766FA00214DF20E40FDF761FA83
:104F9000E5214DF20F40FDF75CFA01214DF2104082
:104FA000FDF757FA13214DF21140FDF752FA012196
:104FB0004DF21240FDF74DFA54214DF21340FDF72A
:104FC00048FA01214DF21440FDF743FA82214DF2D7
:104FD0001540FDF73EFA01214DF21640FDF739FA72
:104FE000CA214DF21740FDF734FA02214DF2184064
:104FF000FDF72FFA00214DF21940FDF72AFA0221A0
:105000004DF21A40FDF725FA01214DF21B40FDF744
:1050100020FA00E004E302214DF21C40FDF719FAEA
:1050200034214DF21D40FDF714FA02214DF21E40CD
:10503000FDF70FFA67214DF21F40FDF70AFA022132
:105040004DF22040FDF705FA84214DF22140FDF795
:1050500000FA02214DF22240FDF7FBF9A4214DF2A6
:105060002340FDF7F6F902214DF22440FDF7F1F956
:10507000B7214DF22540FDF7ECF902214DF2264013
:10508000FDF7E7F9CF214DF22740FDF7E2F90221C4
:105090004DF22840FDF7DDF9DE214DF22940FDF704
:1050A000D8F902214DF22A40FDF7D3F9F2214DF251
:1050B0002B40FDF7CEF902214DF22C40FDF7C9F946
:1050C000FE214DF22D40FDF7C4F903214DF22E4093
:1050D000FDF7BFF910214DF22F40FDF7BAF903217A
:1050E0004DF23040FDF7B5F933214DF23140FDF777
:1050F000B0F903214DF23240FDF7ABF96D214DF2CD
:105100003340FDF7A6F900214FF45540FDF7A1F912
:1051100033214DF20150FDF79CF900214DF2025070
:10512000FDF797F934214DF20350FDF792F9002174
:105130004DF20450FDF78DF93A214DF20550FDF77F
:1051400088F900214DF20650FDF783F94A214DF20E
:105150000750FDF77EF900214DF20850FDF779F96F
:105160005C214DF20950FDF774F900214DF20A500F
:10517000FDF76FF981214DF20B50FDF76AF900211F
:105180004DF20C50FDF765F9A6214DF20D50FDF7DB
:1051900060F900214DF20E50FDF75BF9E5214DF26B
:1051A0000F50FDF756F901214DF21050FDF751F95E
:1051B00013214DF21150FDF74CF901214DF212501F
:1051C000FDF747F954214DF21350FDF742F9012143
:1051D0004DF21450FDF73DF982214DF21550FDF7C7
:1051E00038F901214DF21650FDF733F9CA214DF27D
:1051F0001750FDF72EF902214DF21850FDF729F94D
:1052000000214DF21950FDF724F902214DF21A50F8
:10521000FDF71FF901214DF21B50FDF71AF902218C
:105220004DF21C50FDF715F934214DF21D50FDF7DC
:1052300010F902214DF21E50FDF70BF967214DF2D6
:105240001F50FDF706F902214DF22050FDF701F93C
:1052500084214DF22150FDF7FCF802214DF222503D
:10526000FDF7F7F8A4214DF22350FDF7F2F80221E3
:105270004DF22450FDF7EDF8B7214DF22550FDF722
:10528000E8F802214DF22650FDF7E3F8CF214DF268
:105290002750FDF7DEF802214DF22850FDF7D9F82E
:1052A000DE214DF22950FDF7D4F802214DF22A50AB
:1052B000FDF7CFF8F2214DF22B50FDF7CAF802218D
:1052C0004DF22C50FDF7C5F8FE214DF22D50FDF7A3
:1052D000C0F803214DF22E50FDF7BBF810214DF21E
:1052E0002F50FDF7B6F803214DF23050FDF7B1F81D
:1052F00033214DF23150FDF7ACF803214DF232501D
:10530000FDF7A7F86D214DF23350FDF7A2F800210B
:105310004FF45640FDF79DF833214DF20160FDF743
:1053200098F800214DF20260FDF793F834214DF218
:105330000360FDF78EF800214DF20460FDF789F857
:105340003A214DF20560FDF784F800214DF2066028
:10535000FDF77FF84A214DF20760FDF77AF800214A
:105360004DF20860FDF775F85C214DF20960FDF71C
:1053700070F800214DF20A60FDF76BF881214DF2C3
:105380000B60FDF766F800214DF20C60FDF761F847
:10539000A6214DF20D60FDF75CF800214DF20E6084
:1053A000FDF757F8E5214DF20F60FDF752F80121A6
:1053B0004DF21060FDF74DF813214DF21160FDF72D
:1053C00048F801214DF21260FDF743F854214DF2E7
:1053D0001360FDF73EF801214DF21460FDF739F836
:1053E00082214DF21560FDF734F801214DF216606F
:1053F000FDF72FF8CA214DF21760FDF72AF80221B8
:105400004DF21860FDF725F800214DF21960FDF707
:1054100020F802214DF21A60FDF71BF801214DF230
:105420001B60FDF716F802214DF21C60FDF711F824
:1054300034214DF21D60FDF70CF802214DF21E6083
:10544000FDF707F867214DF21F60FDF702F8022112
:105450004DF22060FCF7FDFF84214DF22160FCF746
:10546000F8FF02214DF22260FCF7F3FFA4214DF278
:105470002360FCF7EEFF02214DF22460FCF7E9FF08
:10548000B7214DF22560FCF7E4FF02214DF22660C2
:10549000FCF7DFFFCF214DF22760FCF7DAFF022196
:1054A0004DF22860FCF7D5FFDE214DF22960FCF7B4
:1054B000D0FF02214DF22A60FCF7CBFFF2214DF222
:1054C0002B60FCF7C6FF02214DF22C60FCF7C1FFF8
:1054D000FE214DF22D60FCF7BCFF03214DF22E6042
:1054E000FCF7B7FF10214DF22F60FCF7B2FF03214C
:1054F0004DF23060FCF7ADFF33214DF23160FCF727
:10550000A8FF03214DF23260FCF7A3FF6D214DF29D
:105510003360FCF79EFF55214FF47040FCF799FF74
:10552000AA214FF20100FCF794FF52214FF2020032
:10553000FCF78FFF08214FF20300FCF78AFF0021E0
:105540004FF20400FCF785FFCC214FF43140FCF70B
:1055500080FF00214BF20110FCF77BFF05214FF487
:105560003640FCF776FF70214FF43740FCF771FFAF
:1055700070214BF20170FCF76CFF01214FF43840B1
:10558000FCF767FF03214BF60100FCF762FF0321E4
:105590004BF60200FCF75DFF03214BF60300FCF71E
:1055A00058FF02214FF43C40FCF753FF00214BF61B
:1055B0000140FCF74EFF00214BF60240FCF749FF8B
:1055C000D0214FF44940FCF744FF02214CF6011072
:1055D000FCF73FFF50214CF60210FCF73AFF502138
:1055E0004CF60310FCF735FF50214CF60410FCF785
:1055F00030FF00214FF45450FCF72BFF55214FF49E
:105600006850FCF726FF4FF48850FCF713FF782012
:1056100002F07BFF4FF42450FCF70CFF01F05BB964
:10562000FE48808849F2253188427DD147F6F00155
:10563000E520FCF70EFF4FF480710120FCF709FF15
:105640004FF4E0610220FCF704FF41F23001032037
:10565000FCF7FFFE00210420FCF7FBFE40F20221D4
:105660000820FCF7F6FE00210920FCF7F2FE0021DD
:105670000A20FCF7EEFE00210C20FCF7EAFE0021D8
:105680000D20FCF7E6FE00210F20FCF7E2FE0021D2
:105690001020FCF7DEFE07211120FCF7DAFE0021C6
:1056A0001220FCF7D6FE00211320FCF7D2FE0021C9
:1056B0000720FCF7CEFE41F290611020FCF7C9FEF6
:1056C00040F227211120FCF7C4FE9D211220FCF797
:1056D000C0FE4FF4C8511320FCF7BBFE2521292042
:1056E000FCF7B7FE0D212B20FCF7B3FE072130207D
:1056F000FCF7AFFE40F203313120FCF7AAFE032194
:105700003220FCF7A6FE40F206213520FCF7A1FE70
:1057100008213620FCF79DFE40F206413720FCF7B9
:1057200098FE4FF4417100E058E03820FCF791FEFC
:1057300007213920FCF78DFE40F202613C20FCF786
:1057400088FE08213D20FCF784FE00215020FCF754
:1057500080FEEF215120FCF77CFE00215220FCF757
:1057600078FE40F23F115320FCF773FE4FF42741BF
:105770006020FCF76EFE01216120FCF76AFE00212B
:105780006A20FCF766FE00218020FCF762FE002103
:105790008120FCF75EFE00218220FCF75AFE0021EA
:1057A0008320FCF756FE00218420FCF752FE0021E6
:1057B0008520FCF74EFE10219020FCF74AFE4FF4A6
:1057C000C0619220FCF745FE40F233110720FCF740
:1057D00040FE22210020FCF73CFE1FE78F48808816
:1057E00049F2283188427DD141F28F01EC20FCF74B
:1057F00030FE41F23421EF20FCF72BFE4FF4807194
:105800000120FCF726FE4FF4E0610220FCF721FEA8
:1058100041F230010320FCF71CFE00210420FCF7BC
:1058200018FE40F202210820FCF713FE0021092097
:10583000FCF70FFE00210A20FCF70BFE01210C20D3
:10584000FCF707FE00210D20FCF703FE00210F20CE
:10585000FCF7FFFD00211020FCF7FBFD07211120C4
:10586000FCF7F7FD00211220FCF7F3FD00211320C7
:10587000FCF7EFFD01210720FCF7EBFD322002F0E1
:1058800068FE41F290411020FCF7E3FD40F2272131
:105890001120FCF7DEFD322002F05BFE8A2112208F
:1058A000FCF7D7FD322002F054FE4FF4D051132004
:1058B000FCF7CFFD06212920FCF7CBFD0D212B2085
:1058C000FCF7C7FD322002F044FE00212020FCF747
:1058D000C0FD00212120FCF7BCFD322002F039FE82
:1058E000002100E075E03020FCF7B3FD40F20461D8
:1058F0003120FCF7AEFD40F205313220FCF7A9FD66
:1059000000213520FCF7A5FD40F609413620FCF7C3
:10591000A0FD4FF401713720FCF79BFD40F20131EF
:105920003820FCF796FD40F207713920FCF791FD15
:1059300000213C20FCF78DFD40F60A213D20FCF7BC
:1059400088FD322002F005FE00215020FCF781FD89
:10595000EF215120FCF77DFD00215220FCF779FD5D
:1059600040F23F115320FCF774FD4FF427416020B3
:10597000FCF76FFD01216120FCF76BFD00216A201F
:10598000FCF767FD00218020FCF763FD00218120EA
:10599000FCF75FFD00218220FCF75BFD00218320E6
:1059A000FCF757FD00218420FCF753FD00218520E2
:1059B000FCF74FFD10219020FCF74BFD4FF4C06128
:1059C0009220FCF746FD40F233110720FCF741FD21
:1059D00024E61248808849F2203188427ED1002195
:1059E0000846FCF736FD4FF480710120FCF731FDCD
:1059F0004FF4E0610220FCF72CFD41F2300103205E
:105A0000FCF727FD00210420FCF723FD40F20221D2
:105A10000820FCF71EFD0021092001E06859002044
:105A2000FCF717FD00210A20FCF713FD01210C20D3
:105A3000FCF70FFD00210D20FCF70BFD00210F20CE
:105A4000FCF707FD322002F084FD40F2011107202F
:105A5000FCF7FFFC322002F07CFD4FF48651102051
:105A6000FCF7F7FC07211120FCF7F3FC4FF48871D9
:105A70001220FCF7EEFC4FF430611320FCF7E9FC38
:105A800000212920FCF7E5FC44F210012B20FCF753
:105A9000E0FC00215020FCF7DCFCEF215120FCF75A
:105AA000D8FC00215220FCF7D4FC40F23F115320D7
:105AB000FCF7CFFC4FF41C516020FCF7CAFC01211D
:105AC0006120FCF7C6FC00216A20FCF7C2FC002123
:105AD0008020FCF7BEFC0021812000E030E0FCF7D4
