:020000040800F2
:10000000208C002065010008190F00087B0E0008F5
:10001000150F0008810A0008051300080000000001
:1000200000000000000000000000000011100008A7
:10003000850A0008000000001B0F0008FD100008E2
:100040007F0100087F0100087F0100087F01000890
:100050007F0100087F0100087F0100087F01000880
:100060007F0100087F0100087F0100087F01000870
:100070007F0100087F0100087F0100087F01000860
:100080007F0100087F0100087F0100087F01000850
:100090007F0100087F0100087F0100087F01000840
:1000A0007F0100087F0100087F0100087F01000830
:1000B0007F0100087F0100087F0100087F01000820
:1000C0007F0100087F0100087F0100087F01000810
:1000D0007F0100087F0100087F0100087F01000800
:1000E0007F0100087F0100087F0100080000000078
:1000F0000000000000000000000000000000000000
:1001000000000000000000007F0100087F010008DF
:100110007F0100087F0100087F0100087F010008BF
:100120007F0100087F0100087F0100087F010008AF
:100130007F0100087F0100087F0100087F0100089F
:100140007F0100087F0100087F0100087F0100088F
:10015000DFF80CD000F082FC0048004711290008AD
:10016000208C00200648804706480047FEE7FEE74F
:10017000FEE7FEE7FEE7FEE7FEE7FEE7FEE7FEE757
:100180000111000851010008F0B480EA0102D40F07
:100190004200B2EB410F02D20246084611464A0025
:1001A00042D0C30DDDB2C1F3C752AD1A202D35DAEE
:1001B000C1F3160141F4000204B15242C5F1200618
:1001C00002FA06F12A411044B3EBD05F23D0C4B148
:1001D000012DA0EBC35009DCF0BC4FF0004202EA55
:1001E000C352DBB200F5000000F014BB400000F188
:1001F000807000EBC350A0F1807040EAD1704900DC
:1002000009E0490841EAC071A0EBC35000F50000C5
:10021000400800EBC350F0BC00F0F3BA6142012289
:1002200002EB4101001BF6E7F0BC704781F0004192
:10023000AAE780F00040A7E780EA010210B502F0CB
:100240000043400022D04A001FD0010E01EB126192
:10025000C0F35600C2F3560240F4000042F400021C
:10026000A0FB022000047F39140400D0401C50EA97
:10027000124001D44000491EC2B20C0604EBD0105B
:10028000401C4008802A02D003E0002010BD20F06E
:100290000100002900DA0020184310BD30B480EAC4
:1002A000010202F0004530F0004221F0004013D07E
:1002B00090B1C30DD40DC2F31601C0F31600E41AB9
:1002C00041F4000140F400027D34914201D3641CEA
:1002D00000E04900002C02DA30BC002070474FF4E7
:1002E00000000023914201D3891A034340084FEADA
:1002F0004101F7D151B1914202D14FF0004105E0E7
:1003000002D24FF0010101E06FF0010103EBC45094
:10031000284430BC00F075BA2DE9FE4F804681EAD2
:100320000300C00F0C46009021F0004123F000456F
:10033000B8EB0200A94105D24046214690461C4632
:100340000B46024623F00040104347D0270DC7F369
:100350000A00C3F30A510290401A019040286BDA58
:10036000C3F3130040F4801B0098924620B1002391
:10037000D2EB030A63EB0B0B01985946C0F1400224
:10038000504600F00DFA06460D4650465946019A71
:1003900000F025FA10EB08006141002487EA1152B1
:1003A00084EAE7731A4340D0009A62B3019A012AA3
:1003B0004FEA075215DC001B61EB02014FF00042CF
:1003C00002EA0752CDE90042001C41F58011324695
:1003D0002B4600F05CFA03B0BDE8F08F40462146A2
:1003E000F9E7001B61EB0201001C41F580130018C6
:1003F0005B412018A2F5001747EB030140EAD570D6
:10040000B6196D4111E06D084FEA360645EAC07530
:100410004FEA0752001B61EB0201001C41F58011FD
:1004200049084FEA30000019514132462B4603B0CB
:10043000BDE8F04F00F01CBA0098012240000023F4
:10044000D0EB020263EBE073009821464FEAE074C0
:10045000B8EB000061EB0401E9E783F000435BE7E0
:1004600081F0004158E72DE9FE4F81EA030404F0D2
:10047000004421F0004100944FF0000B23F00043B2
:1004800050EA01045ED052EA03045BD0C3F30A547D
:10049000C1F30A552C44A4F2F3340194A0FB025496
:1004A000C1F3130141F48011C3F3130343F4801328
:1004B00001FB024400FB034E840A970A44EA81547C
:1004C00047EA8357A4FB076802958D0A05FB078559
:1004D0004FEA932C04FB0C542705029D4FEA065863
:1004E00047EA1637B5EB08056EEB070C870E920E40
:1004F00047EA811742EA8312A7FB0201B6EB0B0120
:1005000064EB00042B0D43EA0C335E1844EB1C50E3
:10051000DA465146E7FB0201C5F313044FEA0B33F9
:1005200043EA14534FEA0432019C43EA0603A4F160
:100530000C040294009CCDE900B400F0A8F903B0CB
:10054000BDE8F08F00200146F9E72DE9F04D81EA82
:10055000030404F0004B21F0004514464FF0000A5C
:1005600023F0004150EA050220D054EA01021DD0D8
:10057000C5F30A570246C5F31303C1F31300C1F3D1
:100580000A5640F4801543F48013A7EB0608101BAD
:10059000D64608F2FD3873EB050002D308F10108D6
:1005A00001E092185B41B8F1000F03DA0020014628
:1005B000BDE8F08D00204FF48011064684460EE021
:1005C000171B73EB050705D3121B63EB05030643EB
:1005D0004CEA010C49084FEA300092185B4150EA9E
:1005E0000107EDD152EA030012D082EA040083EA47
:1005F0000501084305D0101BAB4106D201220023A0
:1006000006E000224FF0004302E06FF001025310B9
:100610001AEB06004CEB085110EB0A0041EB0B0102
:10062000BDE8F04D00F024B9C10F80EAE070084445
:10063000CA079623002100F0EDB80EB5C10F80EA7D
:10064000E0700844CA07002140F233438DE80E00F1
:100650000A460B4600F01BF903B000BD0EB540F290
:10066000334102910021CDE900110A460B4600F00A
:100670000EF903B000BD70B5C1F30A5201F0004598
:100680000024C1F3130140F2FF3341F480119A4278
:1006900001DA002070BD40F233439A42A2F23342A5
:1006A00003DC524200F08BF800E090402C43F1D084
:1006B000404270BD00F0004230F000400AD0C10D51
:1006C00001F56071C0F3160042EA0151C20840070B
:1006D0001143704700200146704701F0004330B4D9
:1006E00021F0004150EA010206D00A0DA2F5607225
:1006F000C1F31301002A02DC30BC00207047440F14
:1007000044EAC104C100E01830BC00EBC25000F064
:1007100078B830B50B46014600202022012409E0BC
:1007200021FA02F59D4205D303FA02F5491B04FAAA
:1007300002F52844151EA2F10102F1DC30BD2DE9BD
:10074000F05F0546002092469B4688460646814655
:1007500040241BE0284641464746224600F02FF839
:1007600053465A46C01A914110D3114618462246A4
:1007700000F016F82D1A67EB01084F4622460120BB
:10078000002100F00DF817EB00094E41201EA4F1E6
:100790000104DFDC484631462A464346BDE8F09F67
:1007A000202A04DB203A00FA02F100207047914031
:1007B000C2F1200320FA03F3194390407047202A26
:1007C00004DB203A21FA02F00021704721FA02F3FB
:1007D000D040C2F120029140084319467047202AB8
:1007E00006DBCB17203A41FA02F043EAE07306E059
:1007F00041FA02F3D040C2F1200291400843194669
:1008000070470029A8BF7047401C490008BF20F06E
:100810000100704710B4B0FA80FC00FA0CF050EA06
:10082000010404BF10BC704749B1CCF1200421FA87
:1008300004F411FA0CF118BF012121430843A3EB82
:100840000C01CB1D4FEA00614FEA102042BF00208F
:1008500010BC704700EBC35010440029A4BF10BC6B
:100860007047401C490008BF20F0010010BC7047D1
:1008700010B5141E73F1000408DA401C41F10001A8
:1008800092185B411A4301D120F0010010BD2DE9FF
:10089000F04D92469B4611B1B1FA81F202E0B0FAF6
:1008A00080F220329046FFF77BFF04460F4640EA75
:1008B0000A0041EA0B0153465A46084313D0114639
:1008C00053EA010019D0C8F140025046FFF777FF04
:1008D00005460E46504659464246FFF761FF08431B
:1008E00005D0012004E020463946BDE8F08D002007
:1008F000054346EAE0762C4337430A986305E40A49
:10090000A0EB08000022FD0A44EA47540A3002D551
:1009100000200146E9E7010510196941DDE90845B4
:1009200000196941BDE8F04DA2E770B521F0004320
:1009300003430CD0C1F30A550024D5EB040564EB46
:100940000403D617AD1AB34102DB0020014670BD87
:10095000201841EB025170BD2DE9F04D00231A46DD
:100960001B1A8A4103DB00200146BDE8F08DC1F36C
:100970000A52C1F3130141F480154FF0000BD10767
:1009800002D100186D41521E0027044640F2FF11AB
:10099000384601EB620A3E468046024600204FF48C
:1009A0008011FFF70CFFC2197141BB1846EB010023
:1009B000B4EB030C75EB000C04D3E41A65EB0005F3
:1009C00017460E46241908F101006D41804634286F
:1009D000E3DDF91946EB0600091BA84103D24FF0ED
:1009E000FF32134601E0002213461BEB070046EBE3
:1009F0000A51BDE8F04DFFF73BBFC1F30A52C1F306
:100A0000130140F2FF3341F480119A4202DA0020D0
:100A10000146704740F233439A42A2F2334202DC6D
:100A20005242FFF7CCBEFFF7BBBE000030B5041E3C
:100A300071F1000404DB4FF00044404264EB01011B
:100A4000141E73F1000405DB1C464FF000435242B4
:100A500063EB0403994208BF904230BD064C074D3A
:100A600006E0E06840F0010394E80700984710347E
:100A7000AC42F6D3FFF770FB1036000830360008A2
:100A800000BFFEE770470FB42DE9F04786B004467B
:100A9000DDE916532A46DDE912713846FFF7E3FC1B
:100AA00081468A46DDE914532A46DDE9107138464D
:100AB000FFF7D9FC4A465346CDE90001FFF7CDFCCC
:100AC000CDE90201DDE914532A46DDE91271384609
:100AD000FFF7C9FC81468A46DDE916532A46DDE95F
:100AE00010713846FFF7BFFC4A465346CDE9000176
:100AF000FFF712FCCDE9040102A80FC884E80F003B
:100B000006B0BDE8F0075DF814FB00002DE9F04FDA
:100B10009DB004468846404608EBD07149101991B3
:100B2000CDF86C8001201A9002E01A98401C1A90AF
:100B30001B9800EBD07149101B910129F5D1DDF80C
:100B400068A0D3E05046FFF778FD02460B46CDE99A
:100B5000060100204FF0804101F020FFCDE908019F
:100B6000FFF789FD834658460BEBD071491013916E
:100B70007B4812900026B2E03046FFF75EFDCDE9DB
:100B800008011A99A1EB0A00FFF757FD02460B4630
:100B9000CDE9040100204FF0804101F0FFFECDE9D6
:100BA0000601DDE90823FFF75EFCCDE916014046AA
:100BB000FFF73AFD06904FF080401299FFF73CFB9B
:100BC00005900699FFF76AFB0790FFF773FDCDE9E3
:100BD0000801DDE91623FFF746FCCDE91401DDE944
:100BE000140101F0F9FBCDE90E01DDE9140102F079
:100BF000C1FB81F00041CDE9100135466AE0139850
:100C00002F1804EB05130FCBCDE90C23CDE90A0116
:100C100004EB071003C8CDE9080104EB051003C875
:100C2000CDE90601DDE90823FFF776FB04EB0512A9
:100C300003C204EB0710C1688068CDE9080104EB2A
:100C40000510C1688068CDE90601DDE90823FFF7DA
:100C500063FB04EB0512C2E90201DDE90A01CDE9FB
:100C6000080104EB071003C8CDE90601DDE90823FC
:100C7000FFF7F3FB04EB071203C2DDE90C01CDE93A
:100C8000080104EB0711D1E90201CDE90601DDE914
:100C90000823FFF7E2FB04EB0712C2E902010EA8EA
:100CA0000FC8CDE90423CDE9020104EB0711D1E916
:100CB0000201CDE9000104EB071106A8D1E90023E8
:100CC000FFF7E1FE04EB071006A991E80E10A0E87B
:100CD0000E105D44A8F10100A84290DA761C13982A
:100CE000401EB042BFF648AFAAF1010ABAF1010FA7
:100CF000BFF628AFA8F102001890404608EBD0716B
:100D00004E10012525E0B54215DA04EB06130FCB92
:100D1000CDE90C23CDE90A0104EB061004EB051C18
:100D20009CE80E10A0E80E1004EB05100AA991E84B
:100D30000E10A0E80E10DDF8649006E0A6EB0906A0
:100D4000484609EBD0714FEA61094E45F6DA4E4448
:100D50006D1C18988542D6DD1DB0BDE8F08F0000EF
:100D6000D00F49402DE9F041024600250026002021
:100D700000230024002791F803C00CF00F0591F820
:100D800003C00CF0100CBCF1000F03D091F802C0AE
:100D90004CEA050591F800C0BCF1000F31D0146891
:100DA00000202BE04FF0010C0CFA00F3B1F800C06A
:100DB0000CEA03069E4220D183004FF00F0C0CFA80
:100DC00003F7BC4305FA03FC4CEA040491F803C0A2
:100DD000BCF1280F06D14FF0010C0CFA00FCC2F850
:100DE00014C00AE091F803C0BCF1480F05D14FF0E0
:100DF000010C0CFA00FCC2F810C0401C0828D1D32A
:100E00001460B1F800C0BCF1FF0F34DD546800205D
:100E10002EE000F1080C4FF0010808FA0CF3B1F8CD
:100E200000C00CEA03069E4221D183004FF00F0C54
:100E30000CFA03F7BC4305FA03FC4CEA040491F8EE
:100E400003C0BCF1280F05D100F1080C08FA0CF81A
:100E5000C2F8148091F803C0BCF1480F07D100F12B
:100E6000080C4FF0010808FA0CF8C2F81080401C7A
:100E70000828CED35460BDE8F08100BFFEE7000033
:100E80002DE9F04788B04FF0000A30E05046FFF7F8
:100E9000E5FB8046194A1A4BFFF7E5FA0022194B89
:100EA000CDE90001FFF7DFFA0022174BCDE902017F
:100EB000FFF74BFB064602F05DFA0022134BCDE92B
:100EC0000401FFF7D0FA04460022104BFFF724FA82
:100ED000CDE90601FFF701FC0D4941F83A00002079
:100EE00001EBCA0148600AF101001FFA80FABAF565
:100EF000806FCBDB08B0BDE8F0870000182D4454AC
:100F0000FB21194000408F400000C4400000F03F2A
:100F10002000002000BFFEE77047704729B1064A55
:100F200092690243044B9A6104E0034A9269824346
:100F3000014B9A61704700000010024030B500215B
:100F40000022002400232D4D6D6805F00C0121B115
:100F5000042905D0082923D105E0294D056022E0A8
:100F6000274D05601FE0254D6D6805F47012234D77
:100F70006D6805F48034022505EB92421CB9214DC1
:100F8000554305600BE01D4D6D6805F400351DB13E
:100F90001C4D5543056002E0194D5543056002E0C4
:100FA000174D056000BF00BF144D6D6805F0F001DE
:100FB0000909154D6B5C0568DD4045600F4D6D6896
:100FC00005F4E061090A104D6B5C4568DD40856001
:100FD0000A4D6D6805F46051C90A0B4D6B5C45689C
:100FE000DD40C560054D6D6805F44041890B074D36
:100FF0006B5CC568B5FBF3F5056130BD00100240C0
:1010000000127A0000093D000000002010000020BE
:10101000704710B500F002F810BD00000CB50020BC
:10102000019000903348006840F4803031490860F6
:1010300000BF3048006800F4003000900198401C68
:101040000190009818B90198B0F5A06FF1D1294826
:10105000006800F4003010B10120009001E0002091
:1010600000900098012843D12348006840F0100008
:10107000214908600846006820F00300086008461F
:10108000006840F0020008601A484068194948604A
:101090000846406848600846406840F48060486000
:1010A0000846406820F47C1048600846406840F4D8
:1010B000E81048600846006840F08070086000BF93
:1010C0000C48006800F000700028F9D0094840681A
:1010D00020F00300074948600846406840F00200DD
:1010E000486000BF0348406800F00C000828F9D1B0
:1010F0000CBD0000001002400020024070470000BC
:1011000010B51348006840F0010011490860084616
:101110004068104908400E494860084600680E497A
:1011200008400B4908600846006820F480200860E9
:101130000846406820F4FE0048604FF41F008860B5
:10114000FFF767FF4FF000600449086010BD000022
:10115000001002400000FFF8FFFFF6FE08ED00E07F
:1011600021B1828942F40052828104E082894DF6E5
:10117000FF731A40828170471FB500F0B3F84FF437
:10118000E13000900020ADF80600ADF80400ADF8A5
:101190000800ADF80C000C20ADF80A0069460548BF
:1011A00000F034F801210348FFF7DAFF00F004F8FB
:1011B0001FBD00000038014008B518208DF803005D
:1011C0004FF40070ADF8000003208DF8020069466E
:1011D0000648FFF7C7FD04208DF803000002ADF8B4
:1011E000000069460148FFF7BDFD08BD0008014049
:1011F00002460020B1F5007F00D100BF13880B40EC
:101200000BB1012000E00020704700002DE9F047FD
:1012100086B005460E460024A24600BFA146002720
:10122000B08900B100BF2F462C8A4CF6FF700440F5
:10123000F08804432C82AC894EF6F3100440B08849
:1012400031890843718908430443AC81AC8A4FF665
:10125000FF400440B0890443AC8201A8FFF76EFE52
:101260001F48874202D1DDF810A001E0DDF80CA094
:10127000A88900F4004040B10AEBCA0000EB0A1054
:1012800031684900B0FBF1F807E00AEBCA0000EB57
:101290000A1031688900B0FBF1F86420B8FBF0F067
:1012A00004012009642101FB1089A88900F4004091
:1012B00040B1322000EBC900B0FBF1F000F00700B4
:1012C000044308E0322000EB09106421B0FBF1F088
:1012D00000F00F0004432C8106B0BDE8F087000049
:1012E0000038014010B5012144F20400FFF716FE5A
:1012F00010BD01468888C0F308007047C1F308029A
:101300008280704700BFFEE72DE9F04F87B083462B
:101310008A46144699465846FFF78FF9CDE90201EF
:101320005046FFF78AF907462B4A2C4BFFF79BF8EC
:10133000CDE90001DDE90223FFF707F9CDE904015A
:1013400001F04AF80546FFF7C8F92060B9F1010F2E
:101350001DD15846FFF771F9CDE902015046FFF75C
:101360006CF907461C4A1D4BFFF77DF8CDE90001DB
:10137000DDE90223FFF7E9F8054601F0FBFF81F004
:101380000041CDE90401FFF7A8F9606020E0B9F160
:10139000000F1DD15846FFF750F905460E4650463E
:1013A000FFF74BF907460C4A0C4BFFF75CF82A464F
:1013B0003346CDE90001FFF7C8F8CDE9020101F09D
:1013C000D9FF81F00041CDE90401FFF786F96060A3
:1013D00007B0BDE8F08F0000182D4454FB211940E0
:1013E0000FB4054B10B503A9044A029800F024FC81
:1013F00010BC5DF814FB0000ED280008140000206C
:10140000490050EAC12018BF04204A0D18BF40F01F
:10141000010040F2FF72B2EB515F08BF40F00200E2
:10142000012808BF052070472DE9F74F144694B0F6
:101430000021C4E902111599079121F00045C9491D
:101440008D4206DC1599C4E9000117B00020BDE803
:10145000F08FC549DFF814A3A9423CDD0799C44EBB
:101460000029C44FC44A1599534619DDFEF7F5FF0C
:10147000554506D0C14AC24BFEF7EFFFC4E9000153
:101480000AE04FF0D352BE4BFEF7E7FF32463B4631
:10149000FEF7E3FFC4E9000117B00120BDE8F08FBB
:1014A000FEF73AFF554506D0B44AB54BFEF734FF78
:1014B000C4E900010AE04FF0D352B14BFEF72CFF14
:1014C00032463B46FEF728FFC4E9000117B04FF053
:1014D000FF30BDE8F08FAB49A942159978DB21F0C8
:1014E000004183468846A84AA84BFEF7BCFF00226D
:1014F000A74BFEF711FFFFF7BEF80990FFF79DF825
:1015000006460F469C4A5346FEF7ADFF43465A46F1
:10151000FEF7A6FF80468A46984A994B30463946E0
:10152000FEF7A1FF2A0D01250B9242465346FEF716
:1015300097FF032DC4E9000139D00B98C1F30A517C
:10154000401A05EB45111139814230DA9148C34602
:10155000784400EB0510CDF80CA00C90D0E90023E6
:1015600030463946FEF77FFF02460B46049106904F
:1015700058460399FEF771FF80468A4602460B469D
:1015800058460399FEF769FF049B069AFEF765FF2C
:1015900083460C9803913946D0E902233046FEF782
:1015A00062FF5A46039BFEF758FF6D1CBDE7079884
:1015B0000028A2BF099817B0BDE8F08F616881F0DC
:1015C00000416160099817B04042BDE8F08FFFE725
:1015D00084461598C1F31301C0F30A50A0F2F53008
:1015E0004FEA601800F01F06C6F12000139000209B
:1015F0000690079041F4801E05206D4676B1664A3C
:1016000008EB00017A4452F8213002EB8101B3402B
:101610004A68139922FA01F1194305E05F4908EB82
:101620000002794451F82210A1FB0E27A1FB0C13F4
:101630001A449A4234BF0123002303EB070A05EB47
:101640008003D3E901B70F448F4234BF0121002149
:1016500093448B4411B1934502D903E0934501D2E1
:10166000012100E00021C3E901B7514445F82010F1
:10167000011EA0F10100C1DC0298059F00F100509D
:10168000800F12900298DDE903568000FEF7D5FF27
:10169000834628460D91FEF7E1FF6FF01D02FFF72C
:1016A00044F9CDE90E013046FEF7D8FF6FF03D0258
:1016B000FFF73BF980468A463846FEF7CFFF6FF0CA
:1016C0005D02FFF732F90746424653461191FEF795
:1016D00023FEDDE90E23FEF71FFE5A460D9BFEF7A3
:1016E0001BFE00250E465A4628460D9BFEF7B5FE0A
:1016F000DDE90E23FEF7B1FE42465346FEF7ADFE8E
:101700003A46119BFEF7ACFEDFF898A0244A5346F8
:10171000FEF7A9FE07468846234A244B3146284651
:10172000FEF7A1FE3A464346FEF7F6FD0746884619
:101730004FF0A842534631462846FEF794FE3A46FB
:101740004346FEF7E9FD159A12F0004F04D0129AB5
:1017500081F0004152421292C4E90001129817B080
:10176000BDE8F08FFB21E93F7CD90240FB21F93F26
:101770007370032E8A19A33B000040543163621A30
:1017800061B4D03DFB21394183C8C96D305FE43F6E
:101790000000E03FCC1F0000481F00002A1F00008F
:1017A000182D4454FB21F93D3326A611460B113C5C
:1017B0002DE9FF4D21F0004807460C46B8F1795F4E
:1017C00008DAFEF758FF002801BF0020324904B0B4
:1017D000BDE8F08D3A46234610461946FEF743FE13
:1017E000054602462D480E460B460621784400F079
:1017F0005DF82A463346FEF736FEDDE902238246CF
:101800008B4638462146FEF72EFE04460F465246CA
:101810005B4628463146FEF726FE22463B46FEF74B
:101820001CFE07468A464FF0FF3228463146FFF736
:101830007CF81B4A90450ADA3A465346FEF70DFEFD
:1018400004B00022BDE8F04D134BFEF709BE154A67
:101850004245A8BFA8F500154FF00004B8BF124DCF
:1018600022462B46FEF7F9FD0646884622462B46C1
:1018700000200949FEF7F1FD04460D463A4653465D
:1018800030464146FEF7E9FD04B022462B46BDE84E
:10189000F04DFEF7E5BD00000000F03FF81C000031
:1018A0003333D33F0000E93F0000D23F2DE9F04140
:1018B0004F1E00EBC7010446D1E9000115461E4644
:1018C00037F006020DD02A463346FEF7CCFD7F1EC8
:1018D00004EBC703D3E90023FEF71EFD37F0060231
:1018E000F1D1022F25D0042F13D0062F18BFBDE849
:1018F000F0812A463346FEF7B6FDD4E90A23FEF707
:101900000BFD2A463346FEF7AEFDD4E90823FEF769
:1019100003FD2A463346FEF7A6FDD4E90623FEF76B
:10192000FBFC2A463346FEF79EFDD4E90423FEF76E
:10193000F3FC2A463346FEF796FDD4E90223FEF770
:10194000EBFC2A463346FEF78EFDD4E90023BDE8C2
:10195000F041FEF7E1BC00002DE9FF4D054621F006
:10196000004084B00C46B0F1795F0BDA2846FFF7EF
:1019700047FD042808BF00F07FF8284608B021463C
:10198000BDE8F08D2A460B461046FEF76CFD064674
:101990000F462A462346FEF766FD804626488A46BD
:1019A00032463B4605217844FFF780FF8346109876
:1019B000029160B3214A224B40465146FEF753FD47
:1019C000CDE900015A4640465146029BFEF74BFDC9
:1019D00082468846DDE906014FF0FF32FEF7A5FF9B
:1019E00052464346FEF739FD32463B46FEF73BFD85
:1019F000DDE90623FEF731FDDDE90023FEF72DFDCD
:101A000008B02A462346BDE8F04DFEF729BD0B4637
:101A10005A4630463946FEF726FD084A084BFEF77F
:101A20007BFC42465346FEF71EFD08B02A4623467D
:101A3000BDE8F04DFEF770BC3E1C00004955555501
:101A40005555C5BF0022134610460149FEF77DBD1E
:101A50000000F03F0122FEF768BFFEF75DBC0022E8
:101A6000134610461146FEF770BD40F201320020C9
:101A70004FF0E041FEF759BF024A00201107FEF780
:101A800054BF000001FDFFFF02E008C8121F08C19B
:101A9000002AFAD170477047002001E001C1121FEF
:101AA000002AFBD170470000014908607047000020
:101AB000180000202DE9FF5F82B00021DDE904302D
:101AC000020DDDF840B0034318D044F61050A2F2E6
:101AD000FF3242431514119801281FD0A5EB0B00CB
:101AE000401C5FEA000A4FF000064E4FDFF83891C5
:101AF000B046504615D5CAF1000413E011980124F0
:101B00004AA3012801D16FEA0B010298119AC0E99A
:101B10000031C0E9024206B0BDE8F09FCBF1000001
:101B2000DFE704460021404A491842EB0450CDE962
:101B3000001012E0E00707D032463B4640464946D7
:101B4000FEF791FC8046894632463B4610461946D0
:101B5000FEF789FC06460F466410002CEAD1DDE949
:101B60000401DDE90023BAF1000F06DAFEF77BFC81
:101B700042464B46FEF777FC05E0FEF7E6FC4246A0
:101B80004B46FEF7E2FC04460E460022284BFEF7C9
:101B90004DFF03D84FF0FF30014607E00022254BF0
:101BA00020463146FEF7B8FBFEF727FF102409E078
:101BB000002C0ADB0A220023FEF7C1FD039B303212
:101BC0001A55641E50EA0102F2D1641C039AC4F152
:101BD00011031444119A012A03D0012208430DD1A4
:101BE0000AE0084304D000204FF0110B119072E777
:101BF000A3EB0B056D1E0DE05B4504DD4FF000020D
:101C000005F1010504E003DA4FF00002A5F101053A
:101C1000002AECD002981199C0E90231C0E90045D0
:101C200079E70000000014400000F03F30000000A1
:101C30000000F0430000E03F2DE9FF4F95B09B46C8
:101C40008946064600250FE2252877D1002427463D
:101C5000F84A0121059400E0044316F8013F203BB7
:101C600001FA03F01042F7D130782A2811D06FF032
:101C70002F033078A0F13002092A16D8059A44F0D3
:101C8000020402EB820203EB42021044761C059030
:101C9000EFE759F8042B0592002A03DA504244F486
:101CA0000054059044F00204761C30782E2816D19A
:101CB00016F8010F44F004042A280DD06FF02F020B
:101CC0003078A0F13003092B09D807EB870302EB2A
:101CD0004303C718761CF3E759F8047B761C307869
:101CE0006C280FD006DC4C2817D068280DD06A2845
:101CF00014D104E0742810D07A280FD10DE044F4F8
:101D000000140AE044F4801401E044F440147278B2
:101D1000824202D104F58014761C761C3078662845
:101D20000BD013DC582877D009DC002875D0452863
:101D3000F6D04628F4D047281AD19DE118E0632850
:101D400035D0642879D0652812D195E1702873D0F8
:101D500008DC6728F1D069286FD06E280DD06F2875
:101D600006D1B5E073282CD0752875D0782874D0AA
:101D70005A46179990476D1C75E1C4F3025002282A
:101D800009D003280DD0D9F8001004280DD00D601B
:101D900009F1040967E1D9F80010EA17C1E9005216
:101DA000F6E7D9F800100D80F2E70D70F0E719F8AA
:101DB000041B8DF8001000208DF80100EA46012078
:101DC00003E059F804AB4FF0FF3061074FF000011A
:101DD00002D40DE008F101018846B9420FDA8045CE
:101DE000F8DB1AF808100029F4D108E008F1010125
:101DF00088468142FADB1AF808100029F6D10598C6
:101E00005B46A0EB080721463846179A00F094FA83
:101E1000284400EB080507E04DE029E10DE01AF841
:101E2000010B5A4617999047B8F10108F7D25B4663
:101E300021463846179A13E142E00A220092C4F381
:101E400002524FF0000A022A08D059F804CB032AA4
:101E50004FEAEC710AD00DE029E02AE009F1070110
:101E600021F00702F2E802C1914609E00FFA8CFC6A
:101E70004FEAEC71042A03D14FFA8CFC4FEAEC7163
:101E8000002907DA0A460021DCF1000C61EB0201AF
:101E90002D2202E0220504D52B228DF804200122F8
:101EA00003E0E20701D02022F7E7904659E00A213B
:101EB00002E010220DE010214FF0000A00910BE02B
:101EC00010224FF0000A44F004040827009203E0B7
:101ED00008224FF0000A0092C4F30252022A05D0F1
:101EE00059F804CB0021032A08D009E009F10701C1
:101EF00021F00702F2E802C1914605E01FFA8CFCCE
:101F0000042A01D10CF0FF0C4FF00008220728D55D
:101F1000702806D0009B83F0100353EA0A0305D013
:101F20000EE040228DF80420012208E05CEA010264
:101F300006D030228DF804208DF80500022290464C
:101F4000009B83F0080353EA0A030AD15CEA01020A
:101F500001D1620705D530228DF804204FF0010829
:101F60007F1E582804D034A003900EA802900DE0E4
:101F700036A0F9E753466046009AFEF7E0FB844638
:101F80000398825C0298401E029002705CEA010095
:101F9000F0D1029806A9081A00F1200A600702D5BC
:101FA00024F4803400E00127574502DDA7EB0A0046
:101FB00000E0002000EB0A01009005984144401A1F
:101FC0000590E00306D45B462146179A059800F079
:101FD000B3F90544002706E001A85A46C05D1799E9
:101FE00090476D1C7F1C4745F6DBE0030CD55B4634
:101FF0002146179A059800F09FF9054404E0302027
:102000005A46179990476D1C0099481E0090002968
:10201000F5DC08E0029802995A460078491C0291C2
:10202000179990476D1CBAF10001AAF1010AF1DC81
:1020300065E100000928010030313233343536378C
:102040003839616263646566000000003031323304
:1020500034353637383941424344454600000000A4
:1020600000F058F90544761C307800287FF4ECAD78
:1020700019B02846BDE8F08F620700D4062709F1A1
:10208000070222F0070CFCE80223E14603F00048B7
:102090005FEA080C02D00FF2702C0DE05FEA045CDE
:1020A00002D50FF2682C07E05FEAC47C02D00FF281
:1020B000602C01E0AFF2700C4FF0FF3823F00043CA
:1020C000CDF850C065280CD006DC452809D046283C
:1020D0001DD047283DD13DE0662818D067287ED125
:1020E00038E00021112F01DB112000E0781CCDE940
:1020F000000106A90EA8FFF7DDFCDDE90F010E9A2D
:1021000003910021009207F1010A04914DE04FF084
:1021100000400097CDE9011006A90EA8FFF7CAFC00
:10212000DDE90F0203920E9B11990022DDF80CA04D
:102130000093049211B9791C00EB010AB7EB0A0075
:1021400004D4C0F1FF3007F1010A0490AAEB0700A4
:10215000019044E0012F00DA01270021112F01DD59
:10216000112000E03846CDE9000106A90EA8FFF7CE
:10217000A1FCDDE90F010E9A039100210491009268
:10218000BA4621070CD40399514500DA8A46BAF1C0
:10219000010F05DD009AAAF10101515C302908D038
:1021A000B84202DA10F1040F06DA0121CDE901107C
:1021B00015E0AAF10101E9E7002805DC04990144D2
:1021C0000491AAEB000102E0411C514500DD8A4662
:1021D0000499401A401C01904FF0004002902007E3
:1021E00004D40198504501DBCDF8048000208DF81F
:1021F0004F0002980DF14F07B0F1004F25D02B2072
:102200000E9002984FF0020800280CDA404202902B
:102210002D200E9007E00A210298FEF77AFA30315D
:10222000029007F8011DB8F10001A8F10108F2DCE5
:1022300002980028EFD1791E0E980870307800F0CF
:10224000200040F0450007F8020D12A8C01B00F165
:1022500007081498007800B1012000EB0A010198EA
:1022600001EBE07105984144401A401E0590E003DF
:1022700006D45B462146179A059800F05DF80544A0
:102280001498007818B15A46179990476D1CE003CE
:1022900024D55B462146179A059800F04DF8054471
:1022A0001CE00498002807DBDDE90301884203DD18
:1022B0000098405C179901E0179930205A469047E2
:1022C000049805F10105401C04900198401E0190FE
:1022D00004D12E205A46179990476D1CBAF100017F
:1022E000AAF1010ADDDC05E017F8010B5A4617993F
:1022F00090476D1CB8F10001A8F10108F4DC5B46C1
:102300002146179A0598ABE62D0000002B0000002F
:10231000200000002DE9F041044600251E46174626
:10232000880404D405E039462020B0476D1C641EA3
:10233000F9D52846BDE8F0812DE9F0410446002595
:102340001E469046C80301D5302700E020278804A8
:1023500004D505E041463846B0476D1C641EF9D5EA
:102360002846BDE8F0817FB5089C03990198FDF7E8
:1023700063FF054602990098FDF75EFF0646294671
:10238000FDF754FF2060DDE90101FDF755FF05462B
:1023900003990098FDF750FF06462946FDF7F4FE25
:1023A00060607FBD1FB5069C02990098FDF7ECFEAA
:1023B000206003990198FDF7E7FE60601FBD1FB51F
:1023C000069C02990098FDF731FF2060039901985F
:1023D000FDF72CFF60601FBD00B5244B21F00042CB
:1023E00087B09A42DCBF0022134629DD204B9A4277
:1023F00008D140B94FF00100FFF756FBFFF72FFB64
:1024000007B000BD03DBFFF725FB07B000BD02AA44
:10241000FFF70AF810F0030104BF0DF1080C9CE867
:102420000F000DD0012001290ED0022914D00DF18A
:10243000080C00909CE80F00FFF78EFA07B000BD73
:10244000FFF7B6F907B000BD0DF1080C00909CE84D
:102450000F00FFF781FA05E00DF1080C9CE80F0072
:10246000FFF7A6F907B081F0004100BDFB21E93F6D
:102470000000F07F2DE9F04788B04FF0000A00BF60
:10248000B7E05046FEF7EAF8A54AA64BCDE90601AB
:10249000FDF7E9FF80460022A34BFDF7E4FF064667
:1024A00000F068FF04460022A04BFDF7DCFFA04AC5
:1024B00002EB0A1203C25046FEF7D0F88046984A53
:1024C000984BFDF7D0FF064600229A4BFDF7CBFF55
:1024D000044600F04FFF0022974BCDE90401FDF7C1
:1024E000C2FFCDE90601924800EB0A10D0E9004393
:1024F00022460698FDF710FF8D4A02EB0A1203C22E
:102500005046FEF7ABF88046854A864BFDF7ABFF99
:1025100000228A4BCDE90401FDF7A5FF064600F035
:1025200029FF0022864BCDE90601FDF79CFF0446FA
:102530007F4800EB0A10D0E9006332462046FDF7E1
:10254000EBFE7B4A02EB0A1203C25046FEF786F806
:10255000734A744BCDE90401FDF785FF80460022E4
:10256000784BFDF780FF064600F004FF044600228A
:10257000754BFDF778FFCDE906016D4800EB0A10B9
:10258000D0E9004322460698FDF7C6FE684A02EBF2
:102590000A1203C25046FEF761F8614A614BCDE969
:1025A0000401FDF760FF0022684BCDE90601FDF74D
:1025B0005AFF064600F0DEFE04460022644BFDF79B
:1025C00052FF80465A4800EB0A10D0E900432246E9
:1025D0004046FDF7A1FE564A02EB0A1203C2002153
:1025E000534A02EB0A129160D1600AF101001FFA0E
:1025F00080FABAF5806FFFF644AF4FF480614C4823
:10260000FEF784FA4FF0000A83E0BAF1000F31D1EF
:10261000474800EB0A11D1E9024300EB0A11D1E966
:10262000026122463046FDF71EFF8046894640483B
:1026300000EB0A10D0E900433D4800EB0A102246A7
:10264000D0E900613046FDF70EFF42464B46CDE92A
:102650000201FDF761FECDE9040100F0DBFE00227E
:102660003C4BCDE90601FDF770FF3B4A02EBCA0285
:1026700003C237E02E4800EB0A10D0E902432C4891
:1026800000EB0A102246D0E902613046FDF7EBFE6E
:1026900080468946264800EB0A11D1E9004300EB49
:1026A0000A11D1E9006122463046FDF7DCFE4246C0
:1026B0004B46CDE90001FDF72FFECDE9020100F008
:1026C000A9FE00224FF08043CDE90401FDF7CBFEC7
:1026D0000022204BCDE90601FDF737FF1E4A02EB31
:1026E000CA0203C251461DA0FEF77AFE0AEB8A0019
:1026F00041001AA0FEF774FE174800EBCA01D1E9A9
:102700000043224618A0FEF76BFE0AF101001FFAF3
:1027100080FABAF5007FFFF678AF08B0BDE8F08721
:10272000182D4454FB2119400000743F0040DF4045
:10273000204800200080AB3F0040CF4000C0BC3F9D
:102740000094C1400040CA3F0070B7400040DF3FE6
:102750000040AF4000009040202800202564202049
:10276000202020200000000025662020202020209E
:102770000D0A00002DE9F04F91B005460C462E469B
:1027800001200A9002E00A98401C0A9006EBD671DC
:1027900049100E460129F6D10126284605EBD071D5
:1027A0004F1022E0BE420FDA04EBC70103C9CDE9A6
:1027B0000F0104EBC70004EBC60206CA06C004EB17
:1027C000C600DDE90F1206C0284605EBD0714FEABE
:1027D000610906E0A7EB0907484609EBD0714FEA0B
:1027E0006109B945F6DD4F44761CA81EB042D9DA1E
:1027F0004FF0010A73E05046FDF71FFF02460B46FB
:10280000CDE9040100204FF0804100F0C7F8CDE988
:102810000601FDF730FF834658460BEBD071491097
:10282000099101200C9054E00A99A1EB0A00FDF7F0
:1028300004FF02460B46CDE9000100204FF0804125
:1028400000F0ACF8CDE904010C99481EFDF7F5FE47
:10285000CDE90201DDE90423FDF705FECDE906011E
:10286000FDF709FF0B900C98A0F101082BE00998E7
:102870004044089001230DAA28460B99FEF744FD19
:102880000FA80090089804EBC00CDDE90D23DCE9EB
:102890000001FFF768FD089804EBC00004EBC80CCA
:1028A0000090DDE90F23DCE90001FFF788FD04EB70
:1028B000C80004EBC80C0090DDE90F23DCE900013F
:1028C000FFF770FDD844681E4045D0DC0C98401CD2
:1028D0000C9009990C988842A6DD0AF1010A0A9821
:1028E000824588DD11B0BDE8F08F000070B5044668
:1028F0000D46E1B20548FEF701FD00BF8021034807
:10290000FEF776FC0028F9D0204670BD0038014063
:10291000FEF7F6FBFEF730FC0FA0FEF761FDFEF7B9
:10292000AFFA13494FF48060FFF724FF11A0FEF7C0
:1029300057FDFFF79FFD0DE040F225511548FEF7CA
:1029400057FC38B11348FEF7D4FC0446214612A0C8
:10295000FEF746FDF0E70000D5E2CAC7D2BBB8F6E5
:1029600046465420B2E2CAD4CAB5D1E90D0A0000E5
:1029700020000020B5E3CAFD202020C6B5C2CA2031
:1029800020B7F9D6B5202020CAB5B2BF2020D0E9A3
:10299000B2BF0A0000380140256300002DE9F04D68
:1029A0001D460C4698B0174621F0004123F0004325
:1029B000002814BF4FF0010C4FF0000C0CEB440C3E
:1029C000FE4A0CEB02064FEA620C66452BD33E0032
:1029D00018BF012606EB45061644F94A964222D353
:1029E000F84A53EA070C02D0944205D148B918B00E
:1029F00000201146BDE8F08D002808BF4FF0000C04
:102A000001D04FF0010C0CEB440212F5001F0AD864
:102A1000002F14BF4FF0010C4FF0000C0CEB4502DF
:102A200012F5001F07D918B03A462B462146BDE8DB
:102A3000F04DFFF712B80022DFF88CA3002CB8BFCE
:102A4000534526DADFF884C36345A8BF022220DAA3
:102A5000DFF870C39C451CDCDFF874C30CEB235C0F
:102A6000BCF1140F08DDCCF1340627FA06FC0CFA91
:102A700006F6BE420DD108E05FB9CCF1140623FA88
:102A800006FC0CFA06F69E4203D10CF00102C2F1DC
:102A9000020251EA000C19D1002D17DA002C18BFE0
:102AA000022A01D0012A07D00220FEF7FDFF18B04C
:102AB000BDE8F04DFEF7C6BF0220FEF7F5FFFEF7BA
:102AC000C1FF18B081F00041BDE8F08DB7F1000CF6
:102AD0006CD1534525D104F1804212F5801201BF1B
:102AE00000280020B74918B008BFBDE8F08DB548F0
:102AF000884207DC002DA1BF6046294618B0BDE81A
:102B0000F08D07E0281E05DA80F0004118B060461D
:102B1000BDE8F08DAF497944D1E9000118B0BDE8B6
:102B2000F08DDFF8A0C2634525D1002D1FDA19B161
:102B3000514512D1D8B909E0002840F0EC82A24AF0
:102B4000214618B062F31E01BDE8F08D0020214639
:102B500018B060F31E01BDE8F08D08DA18B0234606
:102B6000BDE8F04D024600206146FDF7EEBC18B00E
:102B70002146BDE8F08D514518DAB5F1804F0DD0F2
:102B8000A5F1005CBCF1FF5C10D1B4F1000C0DDBD1
:102B900018B06146BDE8F04D00F03CBC234618B0CB
:102BA0000246BDE8F04D1946FDF75DBC060024F075
:102BB000004C3BD1D9B1514533D1002C06DD002D5D
:102BC000A1BF0020514618B0BDE8F08D002C01DDFA
:102BD000002D1BDB002C13DA002D11DB012A4FF036
:102BE000000014BF78497C4918B0BDE8F08D022A76
:102BF00018BF002C0AD0012A08D1002C06DA0AE0FE
:102C0000002CB8BF002D11DA012A04D0002018B022
:102C10000146BDE8F08D18B000204FF00041BDE83E
:102C2000F08DA1F14050B0F17F601AD0012000EB8F
:102C3000E47050EA020421D0624C521E4FF0000BA7
:102C4000104304BF4FF0000B644C654883427CDDA9
:102C5000644A654893421FDD884217DB002D25DB5F
:102C600037E0002C00DA4AB1022A0CBF01204FF0F5
:102C7000FF3018B0BDE8F04DFDF7DFBC0120FEF7D6
:102C800013FF18B0BDE8F04DFEF7E9BE4D4A8A4289
:102C900002DC002D0ADC1CE0814202DA002D18DA89
:102CA00004E0484B994220DD002D12DD0220FEF7A2
:102CB000FBFEFEF7DAFE05460E4600225346584656
:102CC0002146FDF7D0FB18B066F31E012846BDE88B
:102CD000F08D0220FEF7E8FEFEF7CEFE0A46214602
:102CE00018B062F31E01BDE8F08D00223046614647
:102CF000FDF7B3FB80460E466FF00102FDF715FEAF
:102D00004FF05532394BFDF7ABFB42463346FDF7EA
:102D1000AAFB0022364BFDF7A3FB82464246334610
:102D2000049110461946FDF79EFB5246049BFDF7A1
:102D30009AFB8A4600904FF0C0422E4B40463146E7
:102D4000FDF791FB2C4A2B4B00E027E0CDE9060173
:102D500051460098FDF787FB82460191274A284B90
:102D600040463146FDF77FFB5246019BFDF775FB60
:102D700082460B4602460591DDE90601FDF7CCFAD5
:102D8000DDE90623002688463046FDF766FB5246FD
:102D9000059BFDF765FB024600F07EB90020B1F50A
:102DA000801F07DA352230466146FDF7BEFD064634
:102DB0006FF0340000EB215024E00000FFFF1F0003
:102DC000FFFF0F000000F03F0000F07F00004043D5
:102DD00001FCFFFFFE0900000000F0FF0000F0BF53
:102DE0000000E0410000F043FFFFEF3F5555D53FA5
:102DF0000000E03F4715F73FFE822B6544DF5DF89A
:102E00000BAE543EA0F2FF300190C1F3130040F02E
:102E10007F6141F040510291FE498842D8BF0020B5
:102E200004DDFD498142C8BF012001DD0D9008E0AD
:102E300000200D900198401C01900298A0F5801090
:102E400002900299F54878440B910D9900EBC1006E
:102E5000D0E900230F9330460A920B99FDF7FDFA53
:102E6000CDE90601DDE90A2130460F9BFDF754FA52
:102E700002460B460020EA49FDF767FB0591024632
:102E80000B460090DDE90601FDF7EDFA1490E548E8
:102E90008A464FF0000878440299006812904FF07B
:102EA000005040EA61010D980F9B01EB804000F556
:102EB000002109910A9A1298FDF7CFFA32460B9B2E
:102EC000FDF7CEFA42465346FDF7CDFA064602918B
:102ED00040465146099B129AFDF7C5FADDE90623E3
:102EE000FDF7BEFA3246029BFDF7B7FA059B009A42
:102EF000FDF7B9FA0091149A04905346104619460A
:102F0000FDF7B1FA06460246C7480B460291062174
:102F10007844FEF7CBFCCDE90510029B3246104603
:102F20001946FDF7A0FADDE90532FDF79CFA059197
:102F30000646534640461946149AFDF7EDF9009BA4
:102F4000049AFDF790FA3246059BFDF7E5F9CDE9C5
:102F500005104246534610461946FDF784FA0022F2
:102F6000B24B02910A90FDF7D7F9DDE90532FDF782
:102F7000D3F90E464246AD4B4046FDF76EFA029B32
:102F80000A9AFDF76AFADDE90532FDF769FA424669
:102F900002910A90334610465146FDF764FACDE996
:102FA00006015346149A02990A98FDF75CFA8A467C
:102FB00002903346424600990498FDF754FA53466E
:102FC000029AFDF7A9F982460B4602460591DDE912
:102FD0000601FDF7A1F9DDE9062300208846064633
:102FE000FDF73BFA5246059BFDF73AFA82460991F6
:102FF0004FF060428E4B30464146FDF734FA049064
:1030000006918C4A8A4B50460999FDF72CFA824664
:103010000291894A894B30464146FDF724FA5246CF
:10302000029BFDF779F9864B7B440D9A03EBC203B3
:10303000D3E90023FDF770F90E9007910198FDF791
:10304000FCFA0591DDE9061382460E9A0498FDF715
:1030500063F97C4A7A440D9B02EBC303D3E9002356
:1030600000930292FDF758F95246059BFDF754F97B
:103070000026884652463046059BFDF7EEF9009B38
:10308000029AFDF7EAF9069B049AFDF7E6F9079B19
:103090000E9AFDF7E5F9024600200B4602903846ED
:1030A0002946FDF7E0F9824601912B46384619463C
:1030B000029AFDF7D2F932464346FDF7D4F952465B
:1030C000019BFDF729F907468A46324643462946C1
:1030D0000298FDF7C8F905460E463A465346FDF7F5
:1030E0001BF9594A8846914221DBA8EB020353EAB7
:1030F000000210D12A463346FDF7AFF9CDE90401AD
:10310000524A534B38465146FDF706F9DDE9042390
:10311000FDF78CFC21D20220FEF7C6FCFEF7A5FCD1
:103120000A46214618B062F31E01BDE8F08D494BF6
:1031300028F000429A4210D3474A08EB020353EAB0
:1031400000027FF4C6AD2A463346FDF786F93A46BB
:103150005346FDF76BFC7FF6BCAD0022019228F0D0
:1031600000403E493E4A01EB2051824223DA481C8E
:103170004FF4801121FA00F040443A4AC0F30A515A
:103180007A44394BA1F2FF31CB4020EA0303C0F36C
:10319000130040F48010C1F11401C840126801907E
:1031A000B8F1000FBCBF4042019028463146FDF700
:1031B00054F905460E462A46334638465146FDF731
:1031C000ABF84FF000084246284B40460591FDF70A
:1031D0004AF9CDE90601264A264B40460599FDF7F6
:1031E00042F9009102902A46334640460599FDF780
:1031F00034F93A465346FDF733F91F4A1F4BFDF7A2
:1032000032F9009B029AFDF787F807468846024686
:103210000B4635E08E9803007AB60B0016060000C8
:103220000000F03F7E0600007C0500000000084022
:1032300009C7EE3FFD033ADCF5015B14E02F3EBE0B
:10324000540400001804000000009040FE822B652A
:103250004715973C00CC904000346F3F01FCFFFFC6
:103260000000E03F94030000FFFF0F00432EE63F05
:10327000396CA80C615C20BEEF39FAFE422EE63FA5
:10328000DDE90601FDF748F8DDE9062305460E46AF
:10329000FDF7E3F83A464346FDF7E2F80F462A46C3
:1032A0003346009010461946FDF7DDF88246024687
:1032B0002E4888460B4605217844FEF7F7FA524619
:1032C0004346FDF7D0F82A463346FDF7C9F8804655
:1032D0008A463B4628463146009AFDF7C4F83B46ED
:1032E000009AFDF719F80691009000224FF08043F4
:1032F00040465146FDF7B1F80F460C904246534602
:1033000028463146FDF7AFF83B460C9AFDF71DF90C
:10331000069B009AFDF7A1F82A463346FDF79DF873
:103320000022134BFDF79CF8054601980E4601EB71
:1033300000510815002810DC28463146019AFDF797
:10334000F4FAFEF75DF8042808BFFEF795FB28465F
:103350003146019AFDF7E9FA05460B4618B02A46B0
:1033600058462146BDE8F04DFDF77DB80402000047
:103370000000F03F00B5254B21F0004287B09A4293
:1033800003DC0022134600922BE0214B9A4208D125
:1033900040B94FF00100FEF787FBFEF760FB07B076
:1033A00000BD03DBFEF756FB07B000BD02AAFEF727
:1033B0003BF810F003014FF001000DD0012914D0AB
:1033C00002291AD00DF1080C9CE80F00FEF7F0F965
:1033D00007B081F0004100BD0DF1080C00909CE8A1
:1033E0000F00FEF7B9FA07B000BD0DF1080C9CE81C
:1033F0000F00FEF7DDF907B000BD0DF1080C0090DD
:103400009CE80F00FEF7A8FAE2E70000FB21E93F85
:103410000000F07F2DE9F04106460F46FDF79CFACB
:10342000041E0D4618BF0120284320F00040C0F1C3
:103430007F6000F1E040C00F0ED0301C18BF0120AB
:10344000384320F00040C0F17F6000F1E040C00F41
:1034500004BF0120FEF728FB20462946BDE8F08185
:10346000000000000000F03F000000000000F83FF6
:1034700000000000000000000000004003B8E23F30
:10348000000000000000000006D0CF43EBFD4C3EE2
:10349000033333333333E33FFFAB6FDBB66DDB3FD7
:1034A0004D268F515555D53F01411DA96074D13F1F
:1034B00065DBC9934A86CD3FEF4E454A287ECA3F19
:1034C0003E5555555555C53F93BDBE166CC166BF9B
:1034D0002CDE25AF6A56113FF16BD2C541BDBBBE94
:1034E000D0A4BE726937663E4C5555555555A53F1B
:1034F0007751C1166CC156BF9015CB19A001FA3E89
:10350000AD529C804F7E92BEC4B1B4BD9EEE213EB2
:10351000D43888BEE9FAA8BD000000000000000011
:1035200000004054FB21F93F3163621A61B4D03D81
:103530000000601A61B4D03D7370032E8A19A33B5A
:103540000000002E8A19A33BC14920259A837B39AC
:1035500000000000000000006E83F9A22915444E0F
:10356000D15727FCC0DD34F5999562DB4190433C8F
:10357000AB6351FE61C5BBDE3A6E24B7E0D24D426B
:10358000EA2E49061C92D1091CEB1DFE3EA729B16B
:10359000F53582E88444BB2E26709CE9417E5FB4F9
:1035A00039D69139F43953838B5F849C3B28F9BD1C
:1035B000FF97F81F0F9805DE8B112FEF1F6D0A5A2A
:1035C000CF7E366DB709CB27663F464F2DEA5F9E0B
:1035D000C7BA27757BF1E5EBF739073DEA92528AC6
:1035E000B15FFB6B085D8D1FA6F810111111813FB3
:1035F000D561C119A0012ABF7DFEB157E31DC73EA9
:10360000EB9C2B8AE6E55ABE7CD5CF5A3AD9E53DEC
:1036100030360008000000201C000000881A000856
:103620004C3600081C000020048C0000981A00088A
:103630000000000001020304010203040607080958
:0C3640000204060800000000000000006A
:04000005080001519D
:00000001FF
